{
    "abi": [
        {
            "type": "constructor",
            "inputs": [
                {
                    "name": "_verifier",
                    "type": "address",
                    "internalType": "contract IVerifier"
                },
                {
                    "name": "_hasher",
                    "type": "address",
                    "internalType": "contract Poseidon2"
                },
                {
                    "name": "_merkleTreeDepth",
                    "type": "uint32",
                    "internalType": "uint32"
                },
                {
                    "name": "_daoAddress",
                    "type": "address",
                    "internalType": "address"
                },
                {
                    "name": "_percentageFee",
                    "type": "uint256",
                    "internalType": "uint256"
                },
                {
                    "name": "_fixedFee",
                    "type": "uint256",
                    "internalType": "uint256"
                }
            ],
            "stateMutability": "nonpayable"
        },
        {
            "type": "function",
            "name": "BASIS_POINTS",
            "inputs": [],
            "outputs": [
                {
                    "name": "",
                    "type": "uint256",
                    "internalType": "uint256"
                }
            ],
            "stateMutability": "view"
        },
        {
            "type": "function",
            "name": "FIELD_SIZE",
            "inputs": [],
            "outputs": [
                {
                    "name": "",
                    "type": "uint256",
                    "internalType": "uint256"
                }
            ],
            "stateMutability": "view"
        },
        {
            "type": "function",
            "name": "HIGH_ANONYMITY_THRESHOLD",
            "inputs": [],
            "outputs": [
                {
                    "name": "",
                    "type": "uint256",
                    "internalType": "uint256"
                }
            ],
            "stateMutability": "view"
        },
        {
            "type": "function",
            "name": "LONG_WAIT_TIME",
            "inputs": [],
            "outputs": [
                {
                    "name": "",
                    "type": "uint256",
                    "internalType": "uint256"
                }
            ],
            "stateMutability": "view"
        },
        {
            "type": "function",
            "name": "LOW_ANONYMITY_THRESHOLD",
            "inputs": [],
            "outputs": [
                {
                    "name": "",
                    "type": "uint256",
                    "internalType": "uint256"
                }
            ],
            "stateMutability": "view"
        },
        {
            "type": "function",
            "name": "MAXIMUM_PERCENTAGE_FEE",
            "inputs": [],
            "outputs": [
                {
                    "name": "",
                    "type": "uint256",
                    "internalType": "uint256"
                }
            ],
            "stateMutability": "view"
        },
        {
            "type": "function",
            "name": "MAX_MERKLE_TREE_DEPTH",
            "inputs": [],
            "outputs": [
                {
                    "name": "",
                    "type": "uint32",
                    "internalType": "uint32"
                }
            ],
            "stateMutability": "view"
        },
        {
            "type": "function",
            "name": "MEDIUM_ANONYMITY_THRESHOLD",
            "inputs": [],
            "outputs": [
                {
                    "name": "",
                    "type": "uint256",
                    "internalType": "uint256"
                }
            ],
            "stateMutability": "view"
        },
        {
            "type": "function",
            "name": "MEDIUM_POOL_THRESHOLD",
            "inputs": [],
            "outputs": [
                {
                    "name": "",
                    "type": "uint256",
                    "internalType": "uint256"
                }
            ],
            "stateMutability": "view"
        },
        {
            "type": "function",
            "name": "PERCENTAGE_MULTIPLIER",
            "inputs": [],
            "outputs": [
                {
                    "name": "",
                    "type": "uint256",
                    "internalType": "uint256"
                }
            ],
            "stateMutability": "view"
        },
        {
            "type": "function",
            "name": "PUBLIC_INPUTS_AMOUNTS_OFFSET",
            "inputs": [],
            "outputs": [
                {
                    "name": "",
                    "type": "uint256",
                    "internalType": "uint256"
                }
            ],
            "stateMutability": "view"
        },
        {
            "type": "function",
            "name": "PUBLIC_INPUTS_GROUP_SIZE",
            "inputs": [],
            "outputs": [
                {
                    "name": "",
                    "type": "uint256",
                    "internalType": "uint256"
                }
            ],
            "stateMutability": "view"
        },
        {
            "type": "function",
            "name": "PUBLIC_INPUTS_SIZE",
            "inputs": [],
            "outputs": [
                {
                    "name": "",
                    "type": "uint256",
                    "internalType": "uint256"
                }
            ],
            "stateMutability": "view"
        },
        {
            "type": "function",
            "name": "PUBLIC_INPUTS_TOKENS_OFFSET",
            "inputs": [],
            "outputs": [
                {
                    "name": "",
                    "type": "uint256",
                    "internalType": "uint256"
                }
            ],
            "stateMutability": "view"
        },
        {
            "type": "function",
            "name": "REVEAL_DELAY",
            "inputs": [],
            "outputs": [
                {
                    "name": "",
                    "type": "uint256",
                    "internalType": "uint256"
                }
            ],
            "stateMutability": "view"
        },
        {
            "type": "function",
            "name": "ROOT_HISTORY_SIZE",
            "inputs": [],
            "outputs": [
                {
                    "name": "",
                    "type": "uint32",
                    "internalType": "uint32"
                }
            ],
            "stateMutability": "view"
        },
        {
            "type": "function",
            "name": "SHORT_WAIT_TIME",
            "inputs": [],
            "outputs": [
                {
                    "name": "",
                    "type": "uint256",
                    "internalType": "uint256"
                }
            ],
            "stateMutability": "view"
        },
        {
            "type": "function",
            "name": "SMALL_POOL_THRESHOLD",
            "inputs": [],
            "outputs": [
                {
                    "name": "",
                    "type": "uint256",
                    "internalType": "uint256"
                }
            ],
            "stateMutability": "view"
        },
        {
            "type": "function",
            "name": "ZERO_ELEMENT",
            "inputs": [],
            "outputs": [
                {
                    "name": "",
                    "type": "bytes32",
                    "internalType": "bytes32"
                }
            ],
            "stateMutability": "view"
        },
        {
            "type": "function",
            "name": "calculateFee",
            "inputs": [
                {
                    "name": "_amount",
                    "type": "uint256",
                    "internalType": "uint256"
                }
            ],
            "outputs": [
                {
                    "name": "",
                    "type": "uint256",
                    "internalType": "uint256"
                }
            ],
            "stateMutability": "view"
        },
        {
            "type": "function",
            "name": "commit",
            "inputs": [
                {
                    "name": "_commitmentHash",
                    "type": "bytes32",
                    "internalType": "bytes32"
                }
            ],
            "outputs": [],
            "stateMutability": "payable"
        },
        {
            "type": "function",
            "name": "daoAddress",
            "inputs": [],
            "outputs": [
                {
                    "name": "",
                    "type": "address",
                    "internalType": "address"
                }
            ],
            "stateMutability": "view"
        },
        {
            "type": "function",
            "name": "deposit",
            "inputs": [
                {
                    "name": "_commitment",
                    "type": "bytes32",
                    "internalType": "bytes32"
                }
            ],
            "outputs": [],
            "stateMutability": "payable"
        },
        {
            "type": "function",
            "name": "fixedFee",
            "inputs": [],
            "outputs": [
                {
                    "name": "",
                    "type": "uint256",
                    "internalType": "uint256"
                }
            ],
            "stateMutability": "view"
        },
        {
            "type": "function",
            "name": "generateCommitment",
            "inputs": [
                {
                    "name": "_token",
                    "type": "address",
                    "internalType": "address"
                },
                {
                    "name": "_amount",
                    "type": "uint256",
                    "internalType": "uint256"
                },
                {
                    "name": "_nullifier",
                    "type": "uint256",
                    "internalType": "uint256"
                },
                {
                    "name": "_secret",
                    "type": "uint256",
                    "internalType": "uint256"
                }
            ],
            "outputs": [
                {
                    "name": "",
                    "type": "bytes32",
                    "internalType": "bytes32"
                }
            ],
            "stateMutability": "view"
        },
        {
            "type": "function",
            "name": "getAnonymityLevel",
            "inputs": [],
            "outputs": [
                {
                    "name": "",
                    "type": "string",
                    "internalType": "string"
                }
            ],
            "stateMutability": "view"
        },
        {
            "type": "function",
            "name": "getBalance",
            "inputs": [
                {
                    "name": "_token",
                    "type": "address",
                    "internalType": "address"
                }
            ],
            "outputs": [
                {
                    "name": "",
                    "type": "uint256",
                    "internalType": "uint256"
                }
            ],
            "stateMutability": "view"
        },
        {
            "type": "function",
            "name": "getFeeBreakdown",
            "inputs": [
                {
                    "name": "_amount",
                    "type": "uint256",
                    "internalType": "uint256"
                }
            ],
            "outputs": [
                {
                    "name": "percentageFeeAmount",
                    "type": "uint256",
                    "internalType": "uint256"
                },
                {
                    "name": "fixedFeeAmount",
                    "type": "uint256",
                    "internalType": "uint256"
                },
                {
                    "name": "totalFee",
                    "type": "uint256",
                    "internalType": "uint256"
                }
            ],
            "stateMutability": "view"
        },
        {
            "type": "function",
            "name": "getLatestRoot",
            "inputs": [],
            "outputs": [
                {
                    "name": "",
                    "type": "bytes32",
                    "internalType": "bytes32"
                }
            ],
            "stateMutability": "view"
        },
        {
            "type": "function",
            "name": "getMaxPoolSize",
            "inputs": [],
            "outputs": [
                {
                    "name": "",
                    "type": "uint256",
                    "internalType": "uint256"
                }
            ],
            "stateMutability": "view"
        },
        {
            "type": "function",
            "name": "getOptimalWithdrawTime",
            "inputs": [],
            "outputs": [
                {
                    "name": "",
                    "type": "uint256",
                    "internalType": "uint256"
                }
            ],
            "stateMutability": "view"
        },
        {
            "type": "function",
            "name": "getPoolSize",
            "inputs": [],
            "outputs": [
                {
                    "name": "",
                    "type": "uint256",
                    "internalType": "uint256"
                }
            ],
            "stateMutability": "view"
        },
        {
            "type": "function",
            "name": "getPoolStats",
            "inputs": [],
            "outputs": [
                {
                    "name": "totalDeposits",
                    "type": "uint256",
                    "internalType": "uint256"
                },
                {
                    "name": "currentRoot",
                    "type": "bytes32",
                    "internalType": "bytes32"
                },
                {
                    "name": "currentPercentageFee",
                    "type": "uint256",
                    "internalType": "uint256"
                },
                {
                    "name": "currentFixedFee",
                    "type": "uint256",
                    "internalType": "uint256"
                }
            ],
            "stateMutability": "view"
        },
        {
            "type": "function",
            "name": "getPoolUtilization",
            "inputs": [],
            "outputs": [
                {
                    "name": "",
                    "type": "uint256",
                    "internalType": "uint256"
                }
            ],
            "stateMutability": "view"
        },
        {
            "type": "function",
            "name": "hashLeftRight",
            "inputs": [
                {
                    "name": "_left",
                    "type": "bytes32",
                    "internalType": "bytes32"
                },
                {
                    "name": "_right",
                    "type": "bytes32",
                    "internalType": "bytes32"
                }
            ],
            "outputs": [
                {
                    "name": "",
                    "type": "bytes32",
                    "internalType": "bytes32"
                }
            ],
            "stateMutability": "view"
        },
        {
            "type": "function",
            "name": "i_depth",
            "inputs": [],
            "outputs": [
                {
                    "name": "",
                    "type": "uint32",
                    "internalType": "uint32"
                }
            ],
            "stateMutability": "view"
        },
        {
            "type": "function",
            "name": "i_hasher",
            "inputs": [],
            "outputs": [
                {
                    "name": "",
                    "type": "address",
                    "internalType": "contract Poseidon2"
                }
            ],
            "stateMutability": "view"
        },
        {
            "type": "function",
            "name": "i_verifier",
            "inputs": [],
            "outputs": [
                {
                    "name": "",
                    "type": "address",
                    "internalType": "contract IVerifier"
                }
            ],
            "stateMutability": "view"
        },
        {
            "type": "function",
            "name": "isDepositValid",
            "inputs": [
                {
                    "name": "_commitment",
                    "type": "bytes32",
                    "internalType": "bytes32"
                }
            ],
            "outputs": [
                {
                    "name": "",
                    "type": "bool",
                    "internalType": "bool"
                }
            ],
            "stateMutability": "view"
        },
        {
            "type": "function",
            "name": "isKnownRoot",
            "inputs": [
                {
                    "name": "_root",
                    "type": "bytes32",
                    "internalType": "bytes32"
                }
            ],
            "outputs": [
                {
                    "name": "",
                    "type": "bool",
                    "internalType": "bool"
                }
            ],
            "stateMutability": "view"
        },
        {
            "type": "function",
            "name": "isPoolFull",
            "inputs": [],
            "outputs": [
                {
                    "name": "",
                    "type": "bool",
                    "internalType": "bool"
                }
            ],
            "stateMutability": "view"
        },
        {
            "type": "function",
            "name": "multiDeposit",
            "inputs": [
                {
                    "name": "_deposits",
                    "type": "tuple[]",
                    "internalType": "struct ShadowPool.Deposit[]",
                    "components": [
                        {
                            "name": "token",
                            "type": "address",
                            "internalType": "address"
                        },
                        {
                            "name": "amount",
                            "type": "uint256",
                            "internalType": "uint256"
                        },
                        {
                            "name": "commitment",
                            "type": "bytes32",
                            "internalType": "bytes32"
                        }
                    ]
                }
            ],
            "outputs": [],
            "stateMutability": "payable"
        },
        {
            "type": "function",
            "name": "percentageFee",
            "inputs": [],
            "outputs": [
                {
                    "name": "",
                    "type": "uint256",
                    "internalType": "uint256"
                }
            ],
            "stateMutability": "view"
        },
        {
            "type": "function",
            "name": "reveal",
            "inputs": [
                {
                    "name": "_nullifier",
                    "type": "bytes32",
                    "internalType": "bytes32"
                },
                {
                    "name": "_secret",
                    "type": "bytes32",
                    "internalType": "bytes32"
                },
                {
                    "name": "_token",
                    "type": "address",
                    "internalType": "address"
                },
                {
                    "name": "_amount",
                    "type": "uint256",
                    "internalType": "uint256"
                }
            ],
            "outputs": [],
            "stateMutability": "nonpayable"
        },
        {
            "type": "function",
            "name": "s_cachedSubtrees",
            "inputs": [
                {
                    "name": "",
                    "type": "uint256",
                    "internalType": "uint256"
                }
            ],
            "outputs": [
                {
                    "name": "",
                    "type": "bytes32",
                    "internalType": "bytes32"
                }
            ],
            "stateMutability": "view"
        },
        {
            "type": "function",
            "name": "s_commitments",
            "inputs": [
                {
                    "name": "",
                    "type": "bytes32",
                    "internalType": "bytes32"
                }
            ],
            "outputs": [
                {
                    "name": "",
                    "type": "bool",
                    "internalType": "bool"
                }
            ],
            "stateMutability": "view"
        },
        {
            "type": "function",
            "name": "s_currentRootIndex",
            "inputs": [],
            "outputs": [
                {
                    "name": "",
                    "type": "uint32",
                    "internalType": "uint32"
                }
            ],
            "stateMutability": "view"
        },
        {
            "type": "function",
            "name": "s_nextLeafIndex",
            "inputs": [],
            "outputs": [
                {
                    "name": "",
                    "type": "uint32",
                    "internalType": "uint32"
                }
            ],
            "stateMutability": "view"
        },
        {
            "type": "function",
            "name": "s_nullifiers",
            "inputs": [
                {
                    "name": "",
                    "type": "bytes32",
                    "internalType": "bytes32"
                }
            ],
            "outputs": [
                {
                    "name": "",
                    "type": "bool",
                    "internalType": "bool"
                }
            ],
            "stateMutability": "view"
        },
        {
            "type": "function",
            "name": "s_pendingCommitments",
            "inputs": [
                {
                    "name": "",
                    "type": "bytes32",
                    "internalType": "bytes32"
                }
            ],
            "outputs": [
                {
                    "name": "",
                    "type": "uint256",
                    "internalType": "uint256"
                }
            ],
            "stateMutability": "view"
        },
        {
            "type": "function",
            "name": "s_roots",
            "inputs": [
                {
                    "name": "",
                    "type": "uint256",
                    "internalType": "uint256"
                }
            ],
            "outputs": [
                {
                    "name": "",
                    "type": "bytes32",
                    "internalType": "bytes32"
                }
            ],
            "stateMutability": "view"
        },
        {
            "type": "function",
            "name": "updateDAOAddress",
            "inputs": [
                {
                    "name": "_newDAOAddress",
                    "type": "address",
                    "internalType": "address"
                }
            ],
            "outputs": [],
            "stateMutability": "nonpayable"
        },
        {
            "type": "function",
            "name": "updateFees",
            "inputs": [
                {
                    "name": "_percentageFee",
                    "type": "uint256",
                    "internalType": "uint256"
                },
                {
                    "name": "_fixedFee",
                    "type": "uint256",
                    "internalType": "uint256"
                }
            ],
            "outputs": [],
            "stateMutability": "nonpayable"
        },
        {
            "type": "function",
            "name": "withdraw",
            "inputs": [
                {
                    "name": "_proof",
                    "type": "bytes",
                    "internalType": "bytes"
                },
                {
                    "name": "_root",
                    "type": "bytes32",
                    "internalType": "bytes32"
                },
                {
                    "name": "_nullifierHashes",
                    "type": "bytes32[]",
                    "internalType": "bytes32[]"
                },
                {
                    "name": "_recipient",
                    "type": "address",
                    "internalType": "address payable"
                },
                {
                    "name": "_tokens",
                    "type": "address[]",
                    "internalType": "address[]"
                },
                {
                    "name": "_amounts",
                    "type": "uint256[]",
                    "internalType": "uint256[]"
                }
            ],
            "outputs": [],
            "stateMutability": "nonpayable"
        },
        {
            "type": "function",
            "name": "zeros",
            "inputs": [
                {
                    "name": "i",
                    "type": "uint256",
                    "internalType": "uint256"
                }
            ],
            "outputs": [
                {
                    "name": "",
                    "type": "bytes32",
                    "internalType": "bytes32"
                }
            ],
            "stateMutability": "pure"
        },
        {
            "type": "event",
            "name": "CommitmentSubmitted",
            "inputs": [
                {
                    "name": "commitment",
                    "type": "bytes32",
                    "indexed": true,
                    "internalType": "bytes32"
                },
                {
                    "name": "user",
                    "type": "address",
                    "indexed": true,
                    "internalType": "address"
                },
                {
                    "name": "value",
                    "type": "uint256",
                    "indexed": false,
                    "internalType": "uint256"
                },
                {
                    "name": "timestamp",
                    "type": "uint256",
                    "indexed": false,
                    "internalType": "uint256"
                }
            ],
            "anonymous": false
        },
        {
            "type": "event",
            "name": "DAOUpdated",
            "inputs": [
                {
                    "name": "oldDAO",
                    "type": "address",
                    "indexed": true,
                    "internalType": "address"
                },
                {
                    "name": "newDAO",
                    "type": "address",
                    "indexed": true,
                    "internalType": "address"
                }
            ],
            "anonymous": false
        },
        {
            "type": "event",
            "name": "FeeCollected",
            "inputs": [
                {
                    "name": "token",
                    "type": "address",
                    "indexed": true,
                    "internalType": "address"
                },
                {
                    "name": "amount",
                    "type": "uint256",
                    "indexed": false,
                    "internalType": "uint256"
                }
            ],
            "anonymous": false
        },
        {
            "type": "event",
            "name": "FeeUpdated",
            "inputs": [
                {
                    "name": "percentageFee",
                    "type": "uint256",
                    "indexed": false,
                    "internalType": "uint256"
                },
                {
                    "name": "fixedFee",
                    "type": "uint256",
                    "indexed": false,
                    "internalType": "uint256"
                }
            ],
            "anonymous": false
        },
        {
            "type": "event",
            "name": "MultiDeposit",
            "inputs": [
                {
                    "name": "commitments",
                    "type": "bytes32[]",
                    "indexed": false,
                    "internalType": "bytes32[]"
                },
                {
                    "name": "leafIndices",
                    "type": "uint32[]",
                    "indexed": false,
                    "internalType": "uint32[]"
                },
                {
                    "name": "timestamp",
                    "type": "uint256",
                    "indexed": false,
                    "internalType": "uint256"
                }
            ],
            "anonymous": false
        },
        {
            "type": "event",
            "name": "SingleDeposit",
            "inputs": [
                {
                    "name": "commitment",
                    "type": "bytes32",
                    "indexed": true,
                    "internalType": "bytes32"
                },
                {
                    "name": "leafIndex",
                    "type": "uint32",
                    "indexed": false,
                    "internalType": "uint32"
                },
                {
                    "name": "timestamp",
                    "type": "uint256",
                    "indexed": false,
                    "internalType": "uint256"
                }
            ],
            "anonymous": false
        },
        {
            "type": "event",
            "name": "Withdrawal",
            "inputs": [
                {
                    "name": "to",
                    "type": "address",
                    "indexed": true,
                    "internalType": "address"
                },
                {
                    "name": "nullifierHashes",
                    "type": "bytes32[]",
                    "indexed": false,
                    "internalType": "bytes32[]"
                },
                {
                    "name": "tokens",
                    "type": "address[]",
                    "indexed": false,
                    "internalType": "address[]"
                },
                {
                    "name": "amounts",
                    "type": "uint256[]",
                    "indexed": false,
                    "internalType": "uint256[]"
                }
            ],
            "anonymous": false
        },
        {
            "type": "error",
            "name": "IncrementalMerkleTree__IndexOutOfBounds",
            "inputs": [
                {
                    "name": "index",
                    "type": "uint256",
                    "internalType": "uint256"
                }
            ]
        },
        {
            "type": "error",
            "name": "IncrementalMerkleTree__LeftValueOutOfRange",
            "inputs": [
                {
                    "name": "left",
                    "type": "bytes32",
                    "internalType": "bytes32"
                }
            ]
        },
        {
            "type": "error",
            "name": "IncrementalMerkleTree__LevelsShouldBeGreaterThanZero",
            "inputs": [
                {
                    "name": "depth",
                    "type": "uint32",
                    "internalType": "uint32"
                }
            ]
        },
        {
            "type": "error",
            "name": "IncrementalMerkleTree__LevelsShouldBeLessThan32",
            "inputs": [
                {
                    "name": "depth",
                    "type": "uint32",
                    "internalType": "uint32"
                }
            ]
        },
        {
            "type": "error",
            "name": "IncrementalMerkleTree__MerkleTreeFull",
            "inputs": [
                {
                    "name": "nextIndex",
                    "type": "uint32",
                    "internalType": "uint32"
                }
            ]
        },
        {
            "type": "error",
            "name": "IncrementalMerkleTree__RightValueOutOfRange",
            "inputs": [
                {
                    "name": "right",
                    "type": "bytes32",
                    "internalType": "bytes32"
                }
            ]
        },
        {
            "type": "error",
            "name": "Mixer__ArrayLengthMismatch",
            "inputs": [
                {
                    "name": "expected",
                    "type": "uint256",
                    "internalType": "uint256"
                },
                {
                    "name": "actual",
                    "type": "uint256",
                    "internalType": "uint256"
                }
            ]
        },
        {
            "type": "error",
            "name": "Mixer__CommitmentAlreadyAdded",
            "inputs": [
                {
                    "name": "commitment",
                    "type": "bytes32",
                    "internalType": "bytes32"
                }
            ]
        },
        {
            "type": "error",
            "name": "Mixer__DepositValueMismatch",
            "inputs": [
                {
                    "name": "expected",
                    "type": "uint256",
                    "internalType": "uint256"
                },
                {
                    "name": "actual",
                    "type": "uint256",
                    "internalType": "uint256"
                }
            ]
        },
        {
            "type": "error",
            "name": "Mixer__FeeExceedsDepositValue",
            "inputs": [
                {
                    "name": "expected",
                    "type": "uint256",
                    "internalType": "uint256"
                },
                {
                    "name": "actual",
                    "type": "uint256",
                    "internalType": "uint256"
                }
            ]
        },
        {
            "type": "error",
            "name": "Mixer__InvalidAddress",
            "inputs": []
        },
        {
            "type": "error",
            "name": "Mixer__InvalidWithdrawProof",
            "inputs": []
        },
        {
            "type": "error",
            "name": "Mixer__NotDAO",
            "inputs": []
        },
        {
            "type": "error",
            "name": "Mixer__NoteAlreadySpent",
            "inputs": [
                {
                    "name": "nullifierHash",
                    "type": "bytes32",
                    "internalType": "bytes32"
                }
            ]
        },
        {
            "type": "error",
            "name": "Mixer__PaymentFailed",
            "inputs": [
                {
                    "name": "recipient",
                    "type": "address",
                    "internalType": "address"
                },
                {
                    "name": "amount",
                    "type": "uint256",
                    "internalType": "uint256"
                }
            ]
        },
        {
            "type": "error",
            "name": "Mixer__PercentageFeeTooHigh",
            "inputs": [
                {
                    "name": "maxAllowed",
                    "type": "uint256",
                    "internalType": "uint256"
                },
                {
                    "name": "provided",
                    "type": "uint256",
                    "internalType": "uint256"
                }
            ]
        },
        {
            "type": "error",
            "name": "Mixer__UnknownRoot",
            "inputs": [
                {
                    "name": "root",
                    "type": "bytes32",
                    "internalType": "bytes32"
                }
            ]
        },
        {
            "type": "error",
            "name": "ReentrancyGuardReentrantCall",
            "inputs": []
        },
        {
            "type": "error",
            "name": "SafeERC20FailedOperation",
            "inputs": [
                {
                    "name": "token",
                    "type": "address",
                    "internalType": "address"
                }
            ]
        }
    ],
    "bytecode": {
        "object": "0x60e0604052600380546001600160401b031916905534801561001f575f5ffd5b5060405161441238038061441283398101604081905261003e916107a2565b838560015f819055508163ffffffff165f0361007a576040516356b2109160e11b815263ffffffff831660048201526024015b60405180910390fd5b601f63ffffffff8316106100a9576040516379671ced60e01b815263ffffffff83166004820152602401610071565b63ffffffff821660a08190526001600160a01b0382166080526100cb9061018f565b5f805260026020527fac33ff75c19e70fe83507db0d683fd3465c996598dc972688b7ace676c89077b5550506001600160a01b0383166101585760405162461bcd60e51b815260206004820152602260248201527f44414f20616464726573732063616e6e6f74206265207a65726f206164647265604482015261737360f01b6064820152608401610071565b6001600160a01b0395861660c052600680546001600160a01b03191693909616929092179094556004939093555050600555610819565b5f815f036101be57507f034f996155f0d9b1a838977011b06a385e8701d10aae926876c9c8a6fa69bf18919050565b816001036101ed57507f2a06a72b1f2b24364e5e4120849b4692bbf91c4bcad66845a399e67022e9f0d9919050565b8160020361021c57507f059c8070788f7308bbda9246ef2d321ad1bf81cda0edfe01399652ff34c53da4919050565b8160030361024b57507f27d1ecbd5115efbbda09f8d68eaeabd0a9f28debb8f211c85234ac5bb3f332c2919050565b8160040361027a57507f1b4fbca11bb4821fc5f3264debc386ff9b7081458ca4725ba5386b1774f665e4919050565b816005036102a957507f189af983b17956b1997302f93059af4d2414a2d19deea6743e8484e3e9213b9d919050565b816006036102d857507f2d61566878b72076d8ccf4bb2211272cd24b352b27285088383c85b4ea19180c919050565b8160070361030757507f16c3503aebf8d918c9771d683e335b2a62547fb8e86e5d0d6cb898c14fb5d396919050565b8160080361033657507f1a5de8d583ecaaa9e3d684145c0410976a66ce979f7e92cd5c0fdbaa2ac1af5a919050565b8160090361036557507f28e3f0b5fd188614cf8c2825ba0263ed70153e1a453f0662baedaeab12a66ef8919050565b81600a0361039457507f16b671eb844a8e4e463e820e26560357edee4ecfdbf5d7b0a28799911505088d919050565b81600b036103c357507f115ea0c2f132c5914d5bb737af6eed04115a3896f0d65e12e761ca560083da15919050565b81600c036103f257507f139a5b42099806c76efb52da0ec1dde06a836bf6f87ef7ab4bac7d00637e28f0919050565b81600d0361042157507f0804853482335a6533eb6a4ddfc215a08026db413d247a7695e807e38debea8e919050565b81600e0361045057507f2f0b264ab5f5630b591af93d93ec2dfed28eef017b251e40905cdf7983689803919050565b81600f0361047f57507f170fc161bf1b9610bf196c173bdae82c4adfd93888dc317f5010822a3ba9ebee919050565b816010036104ae57507f0b2e7665b17622cc0243b6fa35110aa7dd0ee3cc9409650172aa786ca5971439919050565b816011036104dd57507f12d5a033cbeff854c5ba0c5628ac4628104be6ab370699a1b2b4209e518b0ac5919050565b8160120361050c57507f1bc59846eb7eafafc85ba9a99a89562763735322e4255b7c1788a8fe8b90bf5d919050565b8160130361053b57507f1b9421fbd79f6972a348a3dd4721781ec25a5d8d27342942ae00aba80a3904d4919050565b8160140361056a57507f087fde1c4c9c27c347f347083139eee8759179d255ec8381c02298d3d6ccd233919050565b8160150361059957507f1e26b1884cb500b5e6bbfdeedbdca34b961caf3fa9839ea794bfc7f87d10b3f1919050565b816016036105c857507f09fc1a538b88bda55a53253c62c153e67e8289729afd9b8bfd3f46f5eecd5a72919050565b816017036105f757507f14cd0edec3423652211db5210475a230ca4771cd1e45315bcd6ea640f14077e2919050565b8160180361062657507f1d776a76bc76f4305ef0b0b27a58a9565864fe1b9f2a198e8247b3e599e036ca919050565b8160190361065557507f1f93e3103fed2d3bd056c3ac49b4a0728578be33595959788fa25514cdb5d42f919050565b81601a0361068457507f138b0576ee7346fb3f6cfb632f92ae206395824b9333a183c15470404c977a3b919050565b81601b036106b357507f0745de8522abfcd24bd50875865592f73a190070b4cb3d8976e3dbff8fdb7f3d919050565b81601c036106e257507f2ffb8c798b9dd2645e9187858cb92a86c86dcd1138f5d610c33df2696f5f6860919050565b81601d0361071157507f2612a1395168260c9999287df0e3c3f1b0d8e008e90cd15941e4c2df08a68a5a919050565b81601e0361074057507f10ebedce66a910039c8edb2cd832d6a9857648ccff5e99b5d08009b44b088edf919050565b81601f0361076f57507f213fb841f9de06958cf4403477bdbff7c59d6249daabfee147f853db7c808082919050565b604051630edbc04760e31b815260048101839052602401610071565b6001600160a01b038116811461079f575f5ffd5b50565b5f5f5f5f5f5f60c087890312156107b7575f5ffd5b86516107c28161078b565b60208801519096506107d38161078b565b604088015190955063ffffffff811681146107ec575f5ffd5b60608801519094506107fd8161078b565b608088015160a090980151969995985093969395939492505050565b60805160a05160c051613b9e6108745f395f8181610940015261175101525f818161064801528181610a6c01528181610ab001528181611d680152818161297a01526129f401525f81816106150152610b9e0152613b9e5ff3fe608060405260043610610350575f3560e01c80637d57287a116101bd578063c3a2ade6116100f2578063e829558811610092578063f14fcbc81161006d578063f14fcbc814610a01578063f20d749514610a14578063f8b2cb4f14610a28578063fa9b468914610a47575f5ffd5b8063e82955881461098c578063ed7cf2df146109ab578063ee594ca4146109d6575f5ffd5b8063d3f34ff1116100cd578063d3f34ff114610910578063db9753a01461092f578063dc79c2eb14610962578063e1f1c4a714610977575f5ffd5b8063c3a2ade6146104f7578063cd87a3b4146108e8578063d0a1db84146108fc575f5ffd5b8063a305c4971161015d578063af28f7e811610138578063af28f7e81461039f578063b214faa51461088d578063bbb85188146108a0578063bf7d653b146108d4575f5ffd5b8063a305c4971461081f578063a7bc4e301461083e578063aac78c8414610853575f5ffd5b806399a5d7471161019857806399a5d747146107795780639c8b91c1146107985780639dc166b7146107c3578063a20a941e146107f1575f5ffd5b80637d57287a146106b4578063871211df1461073157806391792d5b14610764575f5ffd5b806354111315116102935780636d9833e31161023357806373d732021161020e57806373d7320214610637578063780a7ff01461066a578063783e558f1461067f5780637d40f6d514610693575f5ffd5b80636d9833e3146105c65780636db79437146105e5578063705f032f14610604575f5ffd5b806357f657061161026e57806357f657061461054857806359f41a81146105795780635e85407e1461059d578063684d329c146105b1575f5ffd5b806354111315146104f75780635445b0071461050b5780635580ee3a14610533575f5ffd5b80632131c68c116102fe57806338bf282e116102d957806338bf282e14610477578063414a37ba1461049657806350453f28146104c95780635296bffd14610463575f5ffd5b80632131c68c146103f057806323845e4b1461044157806337dbd12014610463575f5ffd5b8063145f9e2f1161032e578063145f9e2f146103b35780631ba15650146103c85780631d06a3cd146103dc575f5ffd5b8063093c87f3146103545780630fbc8f5b1461037d578063132d62751461039f575b5f5ffd5b34801561035f575f5ffd5b50610368610a66565b60405190151581526020015b60405180910390f35b348015610388575f5ffd5b50610391610aaa565b604051908152602001610374565b3480156103aa575f5ffd5b50610391600a81565b3480156103be575f5ffd5b5061039161070881565b3480156103d3575f5ffd5b50610391601481565b3480156103e7575f5ffd5b50610391600881565b3480156103fb575f5ffd5b5060065461041c9073ffffffffffffffffffffffffffffffffffffffff1681565b60405173ffffffffffffffffffffffffffffffffffffffff9091168152602001610374565b34801561044c575f5ffd5b50600354640100000000900463ffffffff16610391565b34801561046e575f5ffd5b50610391603281565b348015610482575f5ffd5b5061039161049136600461329f565b610adb565b3480156104a1575f5ffd5b506103917f30644e72e131a029b85045b68181585d2833e84879b9709143e1f593f000000181565b3480156104d4575f5ffd5b506103686104e33660046132bf565b5f9081526008602052604090205460ff1690565b348015610502575f5ffd5b50610391606481565b348015610516575f5ffd5b5060035463ffffffff165f90815260026020526040902054610391565b34801561053e575f5ffd5b50610391610e1081565b348015610553575f5ffd5b506003546105649063ffffffff1681565b60405163ffffffff9091168152602001610374565b348015610584575f5ffd5b5060035461056490640100000000900463ffffffff1681565b3480156105a8575f5ffd5b50610391610c71565b6105c46105bf3660046132d6565b610caf565b005b3480156105d1575f5ffd5b506103686105e03660046132bf565b6112d6565b3480156105f0575f5ffd5b506105c46105ff36600461329f565b61134d565b34801561060f575f5ffd5b5061041c7f000000000000000000000000000000000000000000000000000000000000000081565b348015610642575f5ffd5b506105647f000000000000000000000000000000000000000000000000000000000000000081565b348015610675575f5ffd5b5061039160045481565b34801561068a575f5ffd5b50610391600381565b34801561069e575f5ffd5b506106a761142c565b6040516103749190613347565b3480156106bf575f5ffd5b506103916106ce3660046133bb565b60408051602080820194909452808201929092527fffffffffffffffffffffffffffffffffffffffff000000000000000000000000606095861b169482019490945260748082019390935283518082039093018352609401909252805191012090565b34801561073c575f5ffd5b506103917f034f996155f0d9b1a838977011b06a385e8701d10aae926876c9c8a6fa69bf1881565b34801561076f575f5ffd5b5061039160055481565b348015610784575f5ffd5b506103916107933660046132bf565b61153f565b3480156107a3575f5ffd5b506103916107b23660046132bf565b60026020525f908152604090205481565b3480156107ce575f5ffd5b506103686107dd3660046132bf565b60086020525f908152604090205460ff1681565b3480156107fc575f5ffd5b5061036861080b3660046132bf565b60076020525f908152604090205460ff1681565b34801561082a575f5ffd5b506105c4610839366004613484565b611573565b348015610849575f5ffd5b5061039161012c81565b34801561085e575f5ffd5b5061087261086d3660046132bf565b6119f5565b60408051938452602084019290925290820152606001610374565b6105c461089b3660046132bf565b611a2d565b3480156108ab575f5ffd5b506108b4611d1d565b604080519485526020850193909352918301526060820152608001610374565b3480156108df575f5ffd5b50610391611d61565b3480156108f3575f5ffd5b50610564601e81565b348015610907575f5ffd5b50610564601f81565b34801561091b575f5ffd5b506105c461092a36600461356f565b611dc0565b34801561093a575f5ffd5b5061041c7f000000000000000000000000000000000000000000000000000000000000000081565b34801561096d575f5ffd5b506103916101f481565b348015610982575f5ffd5b5061039161271081565b348015610997575f5ffd5b506103916109a63660046132bf565b611ed4565b3480156109b6575f5ffd5b506103916109c53660046132bf565b60016020525f908152604090205481565b3480156109e1575f5ffd5b506103916109f03660046132bf565b60096020525f908152604090205481565b6105c4610a0f3660046132bf565b6124ee565b348015610a1f575f5ffd5b50610391600581565b348015610a33575f5ffd5b50610391610a4236600461356f565b61261d565b348015610a52575f5ffd5b506105c4610a6136600461358a565b6126cc565b5f610a927f000000000000000000000000000000000000000000000000000000000000000060026137cc565b600354640100000000900463ffffffff161015919050565b5f610ad67f000000000000000000000000000000000000000000000000000000000000000060026137cc565b905090565b5f7f30644e72e131a029b85045b68181585d2833e84879b9709143e1f593f00000018310610b3d576040517f8636b86a000000000000000000000000000000000000000000000000000000008152600481018490526024015b60405180910390fd5b7f30644e72e131a029b85045b68181585d2833e84879b9709143e1f593f00000018210610b99576040517f51da4a5b00000000000000000000000000000000000000000000000000000000815260048101839052602401610b34565b610c687f000000000000000000000000000000000000000000000000000000000000000073ffffffffffffffffffffffffffffffffffffffff1663055d8d54610be186612845565b610bea86612845565b6040517fffffffff0000000000000000000000000000000000000000000000000000000060e085901b16815260048101929092526024820152604401602060405180830381865afa158015610c41573d5f5f3e3d5ffd5b505050506040513d601f19601f82011682018060405250810190610c6591906137dd565b90565b90505b92915050565b6003545f90640100000000900463ffffffff166014811015610c9657610e1091505090565b6032811015610ca85761070891505090565b5f91505090565b610cb761284f565b5f808267ffffffffffffffff811115610cd257610cd26137f4565b604051908082528060200260200182016040528015610cfb578160200160208202803683370190505b5090505f8367ffffffffffffffff811115610d1857610d186137f4565b604051908082528060200260200182016040528015610d41578160200160208202803683370190505b5090505f5b84811015610ff45736868683818110610d6157610d61613821565b606002919091016040818101355f9081526008602052205490925060ff16159050610dbe57604080517f248aad93000000000000000000000000000000000000000000000000000000008152908201356004820152602401610b34565b5f6127106004548360200135610dd4919061384e565b610dde9190613892565b90505f60055482610def91906138a5565b905080836020013511610e3b576040517ff6e0f2e20000000000000000000000000000000000000000000000000000000081526020840135600482015260248101829052604401610b34565b5f610e49602085018561356f565b73ffffffffffffffffffffffffffffffffffffffff1603610e7957610e726020840135886138a5565b9650610f58565b610ead333060208601803590610e8f908861356f565b73ffffffffffffffffffffffffffffffffffffffff16929190612890565b8015610f5857600654610efb9073ffffffffffffffffffffffffffffffffffffffff1682610ede602087018761356f565b73ffffffffffffffffffffffffffffffffffffffff16919061291f565b610f08602084018461356f565b73ffffffffffffffffffffffffffffffffffffffff167f06c5efeff5c320943d265dc4e5f1af95ad523555ce0c1957e367dda5514572df82604051610f4f91815260200190565b60405180910390a25b6040808401355f81815260086020529190912080547fffffffffffffffffffffffffffffffffffffffffffffffffffffffffffffff001660011790558651879086908110610fa857610fa8613821565b602002602001018181525050610fc18360400135612962565b858581518110610fd357610fd3613821565b63ffffffff9290921660209283029190910190910152505050600101610d46565b50348314611037576040517f0aa30c9c00000000000000000000000000000000000000000000000000000000815260048101849052346024820152604401610b34565b5f5b8481101561128a573686868381811061105457611054613821565b6060029190910191505f905061106d602083018361356f565b73ffffffffffffffffffffffffffffffffffffffff1603611281575f612710600454836020013561109e919061384e565b6110a89190613892565b90505f600554826110b991906138a5565b9050801561127e5760065473ffffffffffffffffffffffffffffffffffffffff16611166576040517f08c379a000000000000000000000000000000000000000000000000000000000815260206004820152602260248201527f44414f20616464726573732063616e6e6f74206265207a65726f20616464726560448201527f73730000000000000000000000000000000000000000000000000000000000006064820152608401610b34565b6006546040515f9173ffffffffffffffffffffffffffffffffffffffff169083908381818185875af1925050503d805f81146111bd576040519150601f19603f3d011682016040523d82523d5f602084013e6111c2565b606091505b5050905080611220576006546040517f44de6dee00000000000000000000000000000000000000000000000000000000815273ffffffffffffffffffffffffffffffffffffffff909116600482015260248101839052604401610b34565b61122d602085018561356f565b73ffffffffffffffffffffffffffffffffffffffff167f06c5efeff5c320943d265dc4e5f1af95ad523555ce0c1957e367dda5514572df8360405161127491815260200190565b60405180910390a2505b50505b50600101611039565b507fe9cab51270aeafd33a836fd81eb860b78f628a22134783bb478e9222e4c484bd8282426040516112be939291906138f2565b60405180910390a15050506112d260015f55565b5050565b5f816112e357505f919050565b60035463ffffffff16805b63ffffffff81165f908152600260205260409020548403611313575060019392505050565b8063ffffffff165f036113245750601e5b8061132e81613958565b9150508163ffffffff168163ffffffff16036112ee57505f9392505050565b60065473ffffffffffffffffffffffffffffffffffffffff16331461139e576040517fca52093b00000000000000000000000000000000000000000000000000000000815260040160405180910390fd5b6101f48211156113e5576040517fac69a54a0000000000000000000000000000000000000000000000000000000081526101f4600482015260248101839052604401610b34565b6004829055600581905560408051838152602081018390527f528d9479e9f9889a87a3c30c7f7ba537e5e59c4c85a37733b16e57c62df61302910160405180910390a15050565b600354606090640100000000900463ffffffff16600a81101561148257505060408051808201909152600d81527f4c6f7720616e6f6e796d69747900000000000000000000000000000000000000602082015290565b60328110156114c457505060408051808201909152601081527f4d656469756d20616e6f6e796d69747900000000000000000000000000000000602082015290565b606481101561150657505060408051808201909152600e81527f4869676820616e6f6e796d697479000000000000000000000000000000000000602082015290565b505060408051808201909152601181527f4d6178696d756d20616e6f6e796d697479000000000000000000000000000000602082015290565b5f5f61271060045484611552919061384e565b61155c9190613892565b90506005548161156c91906138a5565b9392505050565b61157b61284f565b858314158061158a5750828114155b156115cb576040517f5d7488540000000000000000000000000000000000000000000000000000000081526004810187905260248101849052604401610b34565b5f5b868110156116bd5760075f8989848181106115ea576115ea613821565b602090810292909201358352508101919091526040015f205460ff16156116595787878281811061161d5761161d613821565b905060200201356040517fd692b8a2000000000000000000000000000000000000000000000000000000008152600401610b3491815260200190565b600160075f8a8a8581811061167057611670613821565b602090810292909201358352508101919091526040015f2080547fffffffffffffffffffffffffffffffffffffffffffffffffffffffffffffff00169115159190911790556001016115cd565b506116c7886112d6565b611700576040517f6009dbad00000000000000000000000000000000000000000000000000000000815260048101899052602401610b34565b5f6117118989898989898989612b67565b6040517fea50d0e400000000000000000000000000000000000000000000000000000000815290915073ffffffffffffffffffffffffffffffffffffffff7f0000000000000000000000000000000000000000000000000000000000000000169063ea50d0e49061178a908e908e908690600401613995565b602060405180830381865afa1580156117a5573d5f5f3e3d5ffd5b505050506040513d601f19601f820116820180604052508101906117c991906139f9565b6117ff576040517f63cac85c00000000000000000000000000000000000000000000000000000000815260040160405180910390fd5b5f5b84811015611986575f86868381811061181c5761181c613821565b9050602002016020810190611831919061356f565b73ffffffffffffffffffffffffffffffffffffffff160361193a575f8773ffffffffffffffffffffffffffffffffffffffff1685858481811061187657611876613821565b905060200201356040515f6040518083038185875af1925050503d805f81146118ba576040519150601f19603f3d011682016040523d82523d5f602084013e6118bf565b606091505b505090508061193457878585848181106118db576118db613821565b6040517f44de6dee00000000000000000000000000000000000000000000000000000000815273ffffffffffffffffffffffffffffffffffffffff90941660048501526020029190910135602483015250604401610b34565b5061197e565b61197e8785858481811061195057611950613821565b9050602002013588888581811061196957611969613821565b9050602002016020810190610ede919061356f565b600101611801565b508573ffffffffffffffffffffffffffffffffffffffff167fa1fc5b2aa6ecce4d0137951801a639cc613f4fa1f97e6e72a685bef5124d40458989888888886040516119d796959493929190613a61565b60405180910390a2506119e960015f55565b50505050505050505050565b5f5f5f61271060045485611a09919061384e565b611a139190613892565b6005549093509150611a2582846138a5565b929491935050565b611a3561284f565b5f8181526008602052604090205460ff1615611a80576040517f248aad9300000000000000000000000000000000000000000000000000000000815260048101829052602401610b34565b5f61271060045434611a92919061384e565b611a9c9190613892565b90505f60055482611aad91906138a5565b9050803411611af1576040517ff6e0f2e200000000000000000000000000000000000000000000000000000000815234600482015260248101829052604401610b34565b5f83815260086020526040812080547fffffffffffffffffffffffffffffffffffffffffffffffffffffffffffffff00166001179055611b3084612962565b90508115611cce5760065473ffffffffffffffffffffffffffffffffffffffff16611bdd576040517f08c379a000000000000000000000000000000000000000000000000000000000815260206004820152602260248201527f44414f20616464726573732063616e6e6f74206265207a65726f20616464726560448201527f73730000000000000000000000000000000000000000000000000000000000006064820152608401610b34565b6006546040515f9173ffffffffffffffffffffffffffffffffffffffff169084908381818185875af1925050503d805f8114611c34576040519150601f19603f3d011682016040523d82523d5f602084013e611c39565b606091505b5050905080611c97576006546040517f44de6dee00000000000000000000000000000000000000000000000000000000815273ffffffffffffffffffffffffffffffffffffffff909116600482015260248101849052604401610b34565b6040518381525f907f06c5efeff5c320943d265dc4e5f1af95ad523555ce0c1957e367dda5514572df9060200160405180910390a2505b6040805163ffffffff8316815242602082015285917f772de1ad5fb2cf1d37f010d2b0556f2e0a9d2450e45974e8a640a6b0bc2b8713910160405180910390a2505050611d1a60015f55565b50565b60035463ffffffff640100000000909104165f8080611d4f60035463ffffffff165f9081526002602052604090205490565b92506004549150600554905090919293565b5f80611d8e7f000000000000000000000000000000000000000000000000000000000000000060026137cc565b6003549091508190611db090606490640100000000900463ffffffff1661384e565b611dba9190613892565b91505090565b60065473ffffffffffffffffffffffffffffffffffffffff163314611e11576040517fca52093b00000000000000000000000000000000000000000000000000000000815260040160405180910390fd5b73ffffffffffffffffffffffffffffffffffffffff8116611e5e576040517fe1693c0100000000000000000000000000000000000000000000000000000000815260040160405180910390fd5b6006805473ffffffffffffffffffffffffffffffffffffffff8381167fffffffffffffffffffffffff0000000000000000000000000000000000000000831681179093556040519116919082907f20607ed15af745f0ec1d4cd642508d4bfeb359f58cc027fbc2857dda8c4c9cc9905f90a35050565b5f815f03611f0357507f034f996155f0d9b1a838977011b06a385e8701d10aae926876c9c8a6fa69bf18919050565b81600103611f3257507f2a06a72b1f2b24364e5e4120849b4692bbf91c4bcad66845a399e67022e9f0d9919050565b81600203611f6157507f059c8070788f7308bbda9246ef2d321ad1bf81cda0edfe01399652ff34c53da4919050565b81600303611f9057507f27d1ecbd5115efbbda09f8d68eaeabd0a9f28debb8f211c85234ac5bb3f332c2919050565b81600403611fbf57507f1b4fbca11bb4821fc5f3264debc386ff9b7081458ca4725ba5386b1774f665e4919050565b81600503611fee57507f189af983b17956b1997302f93059af4d2414a2d19deea6743e8484e3e9213b9d919050565b8160060361201d57507f2d61566878b72076d8ccf4bb2211272cd24b352b27285088383c85b4ea19180c919050565b8160070361204c57507f16c3503aebf8d918c9771d683e335b2a62547fb8e86e5d0d6cb898c14fb5d396919050565b8160080361207b57507f1a5de8d583ecaaa9e3d684145c0410976a66ce979f7e92cd5c0fdbaa2ac1af5a919050565b816009036120aa57507f28e3f0b5fd188614cf8c2825ba0263ed70153e1a453f0662baedaeab12a66ef8919050565b81600a036120d957507f16b671eb844a8e4e463e820e26560357edee4ecfdbf5d7b0a28799911505088d919050565b81600b0361210857507f115ea0c2f132c5914d5bb737af6eed04115a3896f0d65e12e761ca560083da15919050565b81600c0361213757507f139a5b42099806c76efb52da0ec1dde06a836bf6f87ef7ab4bac7d00637e28f0919050565b81600d0361216657507f0804853482335a6533eb6a4ddfc215a08026db413d247a7695e807e38debea8e919050565b81600e0361219557507f2f0b264ab5f5630b591af93d93ec2dfed28eef017b251e40905cdf7983689803919050565b81600f036121c457507f170fc161bf1b9610bf196c173bdae82c4adfd93888dc317f5010822a3ba9ebee919050565b816010036121f357507f0b2e7665b17622cc0243b6fa35110aa7dd0ee3cc9409650172aa786ca5971439919050565b8160110361222257507f12d5a033cbeff854c5ba0c5628ac4628104be6ab370699a1b2b4209e518b0ac5919050565b8160120361225157507f1bc59846eb7eafafc85ba9a99a89562763735322e4255b7c1788a8fe8b90bf5d919050565b8160130361228057507f1b9421fbd79f6972a348a3dd4721781ec25a5d8d27342942ae00aba80a3904d4919050565b816014036122af57507f087fde1c4c9c27c347f347083139eee8759179d255ec8381c02298d3d6ccd233919050565b816015036122de57507f1e26b1884cb500b5e6bbfdeedbdca34b961caf3fa9839ea794bfc7f87d10b3f1919050565b8160160361230d57507f09fc1a538b88bda55a53253c62c153e67e8289729afd9b8bfd3f46f5eecd5a72919050565b8160170361233c57507f14cd0edec3423652211db5210475a230ca4771cd1e45315bcd6ea640f14077e2919050565b8160180361236b57507f1d776a76bc76f4305ef0b0b27a58a9565864fe1b9f2a198e8247b3e599e036ca919050565b8160190361239a57507f1f93e3103fed2d3bd056c3ac49b4a0728578be33595959788fa25514cdb5d42f919050565b81601a036123c957507f138b0576ee7346fb3f6cfb632f92ae206395824b9333a183c15470404c977a3b919050565b81601b036123f857507f0745de8522abfcd24bd50875865592f73a190070b4cb3d8976e3dbff8fdb7f3d919050565b81601c0361242757507f2ffb8c798b9dd2645e9187858cb92a86c86dcd1138f5d610c33df2696f5f6860919050565b81601d0361245657507f2612a1395168260c9999287df0e3c3f1b0d8e008e90cd15941e4c2df08a68a5a919050565b81601e0361248557507f10ebedce66a910039c8edb2cd832d6a9857648ccff5e99b5d08009b44b088edf919050565b81601f036124b457507f213fb841f9de06958cf4403477bdbff7c59d6249daabfee147f853db7c808082919050565b6040517f76de023800000000000000000000000000000000000000000000000000000000815260048101839052602401610b34565b919050565b5f3411612557576040517f08c379a000000000000000000000000000000000000000000000000000000000815260206004820152600d60248201527f4d7573742073656e6420455448000000000000000000000000000000000000006044820152606401610b34565b5f81815260096020526040902054156125cc576040517f08c379a000000000000000000000000000000000000000000000000000000000815260206004820152601960248201527f436f6d6d69746d656e7420616c726561647920657869737473000000000000006044820152606401610b34565b5f818152600960209081526040918290204290819055825134815291820152339183917f102c77a37110578411bdac65784540313aa4617c8c5bfc9d18def66f7ed25b03910160405180910390a350565b5f73ffffffffffffffffffffffffffffffffffffffff8216612640575047919050565b6040517f70a0823100000000000000000000000000000000000000000000000000000000815230600482015273ffffffffffffffffffffffffffffffffffffffff8316906370a0823190602401602060405180830381865afa1580156126a8573d5f5f3e3d5ffd5b505050506040513d601f19601f82011682018060405250810190610c6b91906137dd565b604080516020808201879052818301869052606085811b7fffffffffffffffffffffffffffffffffffffffff0000000000000000000000001690830152607480830185905283518084039091018152609490920190925280519101205f905f818152600960205260409020549091506127a1576040517f08c379a000000000000000000000000000000000000000000000000000000000815260206004820152601460248201527f436f6d6d69746d656e74206e6f7420666f756e640000000000000000000000006044820152606401610b34565b5f818152600960205260409020546127bc9061012c906138a5565b421015612825576040517f08c379a000000000000000000000000000000000000000000000000000000000815260206004820152601460248201527f52657665616c2064656c6179206e6f74206d65740000000000000000000000006044820152606401610b34565b5f8181526009602052604081205561283e838383612dbe565b5050505050565b806124e981613177565b60025f540361288a576040517f3ee5aeb500000000000000000000000000000000000000000000000000000000815260040160405180910390fd5b60025f55565b60405173ffffffffffffffffffffffffffffffffffffffff84811660248301528381166044830152606482018390526129199186918216906323b872dd906084015b604051602081830303815290604052915060e01b6020820180517bffffffffffffffffffffffffffffffffffffffffffffffffffffffff8381831617835250505050613200565b50505050565b60405173ffffffffffffffffffffffffffffffffffffffff83811660248301526044820183905261295d91859182169063a9059cbb906064016128d2565b505050565b6003545f90640100000000900463ffffffff166129a07f00000000000000000000000000000000000000000000000000000000000000006002613ae7565b63ffffffff168163ffffffff16036129ec576040517f341df5fc00000000000000000000000000000000000000000000000000000000815263ffffffff82166004820152602401610b34565b80835f80805b7f000000000000000000000000000000000000000000000000000000000000000063ffffffff168163ffffffff161015612aa957612a31600286613afe565b63ffffffff165f03612a6d57839250612a4f8163ffffffff16611ed4565b63ffffffff82165f9081526001602052604090208590559150612a88565b63ffffffff81165f9081526001602052604090205492508391505b612a928383610adb565b9350612a9f600286613b25565b94506001016129f2565b506003545f90601e90612ac39063ffffffff166001613b4c565b612acd9190613afe565b600380547fffffffffffffffffffffffffffffffffffffffffffffffffffffffff000000001663ffffffff83169081179091555f9081526002602052604090208590559050612b1d866001613b4c565b6003805463ffffffff92909216640100000000027fffffffffffffffffffffffffffffffffffffffffffffffff00000000ffffffff90921691909117905550939695505050505050565b60408051600a80825261016082019092526060915f9190602082016101408036833701905050905089815f81518110612ba257612ba2613821565b60209081029190910101525f5b6003811015612c3a5788811015612c0857898982818110612bd257612bd2613821565b9050602002013582826001612be791906138a5565b81518110612bf757612bf7613821565b602002602001018181525050612c32565b5f82612c158360016138a5565b81518110612c2557612c25613821565b6020026020010181815250505b600101612baf565b508673ffffffffffffffffffffffffffffffffffffffff165f1b81600481518110612c6757612c67613821565b60209081029190910101525f5b6003811015612d215785811015612cef57868682818110612c9757612c97613821565b9050602002016020810190612cac919061356f565b73ffffffffffffffffffffffffffffffffffffffff1682612cce8360056138a5565b81518110612cde57612cde613821565b602002602001018181525050612d19565b5f82612cfc8360056138a5565b81518110612d0c57612d0c613821565b6020026020010181815250505b600101612c74565b505f5b6003811015612db05783811015612d7e57848482818110612d4757612d47613821565b6020029190910135905082612d5d8360086138a5565b81518110612d6d57612d6d613821565b602002602001018181525050612da8565b5f82612d8b8360086138a5565b81518110612d9b57612d9b613821565b6020026020010181815250505b600101612d24565b509998505050505050505050565b5f8181526008602052604090205460ff1615612e09576040517f248aad9300000000000000000000000000000000000000000000000000000000815260048101829052602401610b34565b5f61271060045484612e1b919061384e565b612e259190613892565b90505f60055482612e3691906138a5565b9050808411612e7b576040517ff6e0f2e20000000000000000000000000000000000000000000000000000000081526004810185905260248101829052604401610b34565b73ffffffffffffffffffffffffffffffffffffffff851615612f3757612eb973ffffffffffffffffffffffffffffffffffffffff8616333087612890565b8015612f3757600654612ee69073ffffffffffffffffffffffffffffffffffffffff87811691168361291f565b8473ffffffffffffffffffffffffffffffffffffffff167f06c5efeff5c320943d265dc4e5f1af95ad523555ce0c1957e367dda5514572df82604051612f2e91815260200190565b60405180910390a25b5f83815260086020526040812080547fffffffffffffffffffffffffffffffffffffffffffffffffffffffffffffff00166001179055612f7684612962565b905073ffffffffffffffffffffffffffffffffffffffff861661312f57811561312f5760065473ffffffffffffffffffffffffffffffffffffffff1661303e576040517f08c379a000000000000000000000000000000000000000000000000000000000815260206004820152602260248201527f44414f20616464726573732063616e6e6f74206265207a65726f20616464726560448201527f73730000000000000000000000000000000000000000000000000000000000006064820152608401610b34565b6006546040515f9173ffffffffffffffffffffffffffffffffffffffff169084908381818185875af1925050503d805f8114613095576040519150601f19603f3d011682016040523d82523d5f602084013e61309a565b606091505b50509050806130f8576006546040517f44de6dee00000000000000000000000000000000000000000000000000000000815273ffffffffffffffffffffffffffffffffffffffff909116600482015260248101849052604401610b34565b6040518381525f907f06c5efeff5c320943d265dc4e5f1af95ad523555ce0c1957e367dda5514572df9060200160405180910390a2505b6040805163ffffffff8316815242602082015285917f772de1ad5fb2cf1d37f010d2b0556f2e0a9d2450e45974e8a640a6b0bc2b8713910160405180910390a2505050505050565b7f30644e72e131a029b85045b68181585d2833e84879b9709143e1f593f00000018110611d1a576040517f08c379a000000000000000000000000000000000000000000000000000000000815260206004820152601960248201527f4669656c643a20696e70757420697320746f6f206c61726765000000000000006044820152606401610b34565b5f5f60205f8451602086015f885af18061321f576040513d5f823e3d81fd5b50505f513d91508115613236578060011415613250565b73ffffffffffffffffffffffffffffffffffffffff84163b155b15612919576040517f5274afe700000000000000000000000000000000000000000000000000000000815273ffffffffffffffffffffffffffffffffffffffff85166004820152602401610b34565b5f5f604083850312156132b0575f5ffd5b50508035926020909101359150565b5f602082840312156132cf575f5ffd5b5035919050565b5f5f602083850312156132e7575f5ffd5b823567ffffffffffffffff8111156132fd575f5ffd5b8301601f8101851361330d575f5ffd5b803567ffffffffffffffff811115613323575f5ffd5b856020606083028401011115613337575f5ffd5b6020919091019590945092505050565b602081525f82518060208401528060208501604085015e5f6040828501015260407fffffffffffffffffffffffffffffffffffffffffffffffffffffffffffffffe0601f83011684010191505092915050565b73ffffffffffffffffffffffffffffffffffffffff81168114611d1a575f5ffd5b5f5f5f5f608085870312156133ce575f5ffd5b84356133d98161339a565b966020860135965060408601359560600135945092505050565b5f5f83601f840112613403575f5ffd5b50813567ffffffffffffffff81111561341a575f5ffd5b602083019150836020828501011115613431575f5ffd5b9250929050565b5f5f83601f840112613448575f5ffd5b50813567ffffffffffffffff81111561345f575f5ffd5b6020830191508360208260051b8501011115613431575f5ffd5b80356124e98161339a565b5f5f5f5f5f5f5f5f5f5f60c08b8d03121561349d575f5ffd5b8a3567ffffffffffffffff8111156134b3575f5ffd5b6134bf8d828e016133f3565b909b5099505060208b0135975060408b013567ffffffffffffffff8111156134e5575f5ffd5b6134f18d828e01613438565b9098509650613504905060608c01613479565b945060808b013567ffffffffffffffff81111561351f575f5ffd5b61352b8d828e01613438565b90955093505060a08b013567ffffffffffffffff81111561354a575f5ffd5b6135568d828e01613438565b915080935050809150509295989b9194979a5092959850565b5f6020828403121561357f575f5ffd5b813561156c8161339a565b5f5f5f5f6080858703121561359d575f5ffd5b843593506020850135925060408501356135b68161339a565b9396929550929360600135925050565b7f4e487b71000000000000000000000000000000000000000000000000000000005f52601160045260245ffd5b6001815b600184111561362e57808504811115613612576136126135c6565b600184161561362057908102905b60019390931c9280026135f7565b935093915050565b5f8261364457506001610c6b565b8161365057505f610c6b565b816001811461366657600281146136705761368c565b6001915050610c6b565b60ff841115613681576136816135c6565b50506001821b610c6b565b5060208310610133831016604e8410600b84101617156136af575081810a610c6b565b6136da7fffffffffffffffffffffffffffffffffffffffffffffffffffffffffffffffff84846135f3565b807fffffffffffffffffffffffffffffffffffffffffffffffffffffffffffffffff0482111561370c5761370c6135c6565b029392505050565b5f8261372257506001610c6b565b8161372e57505f610c6b565b816001811461366657600281036137705760ff841115613750576137506135c6565b6001841b915063ffffffff82111561376a5761376a6135c6565b50610c6b565b5060208310610133831016604e8410600b84101617156137a7575081810a63ffffffff8111156137a2576137a26135c6565b610c6b565b6137b663ffffffff84846135f3565b8063ffffffff0482111561370c5761370c6135c6565b5f610c6863ffffffff841683613636565b5f602082840312156137ed575f5ffd5b5051919050565b7f4e487b71000000000000000000000000000000000000000000000000000000005f52604160045260245ffd5b7f4e487b71000000000000000000000000000000000000000000000000000000005f52603260045260245ffd5b8082028115828204841417610c6b57610c6b6135c6565b7f4e487b71000000000000000000000000000000000000000000000000000000005f52601260045260245ffd5b5f826138a0576138a0613865565b500490565b80820180821115610c6b57610c6b6135c6565b5f8151808452602084019350602083015f5b828110156138e85781518652602095860195909101906001016138ca565b5093949350505050565b606081525f61390460608301866138b8565b82810360208401528085518083526020830191506020870192505f5b8181101561394457835163ffffffff16835260209384019390920191600101613920565b505060409390930193909352509392505050565b5f63ffffffff82168061396d5761396d6135c6565b7fffffffffffffffffffffffffffffffffffffffffffffffffffffffffffffffff0192915050565b60408152826040820152828460608301375f606084830101525f7fffffffffffffffffffffffffffffffffffffffffffffffffffffffffffffffe0601f850116820160608382030160208401526139ef60608201856138b8565b9695505050505050565b5f60208284031215613a09575f5ffd5b8151801515811461156c575f5ffd5b8183525f7f07ffffffffffffffffffffffffffffffffffffffffffffffffffffffffffffff831115613a48575f5ffd5b8260051b80836020870137939093016020019392505050565b606081525f613a7460608301888a613a18565b8281036020808501919091528682528791015f5b87811015613ac5578235613a9b8161339a565b73ffffffffffffffffffffffffffffffffffffffff16825260209283019290910190600101613a88565b508381036040850152613ad9818688613a18565b9a9950505050505050505050565b5f610c6863ffffffff841663ffffffff8416613714565b5f63ffffffff831680613b1357613b13613865565b8063ffffffff84160691505092915050565b5f63ffffffff831680613b3a57613b3a613865565b8063ffffffff84160491505092915050565b63ffffffff8181168382160190811115610c6b57610c6b6135c656fea264697066735822122084ed0611a29cc73fc5107c3ea116475764f06b84d1aa0f4429928727f20e0c6064736f6c634300081e0033",
        "linkReferences": {}
    },
    "methodIdentifiers": {
        "BASIS_POINTS()": "e1f1c4a7",
        "FIELD_SIZE()": "414a37ba",
        "HIGH_ANONYMITY_THRESHOLD()": "c3a2ade6",
        "LONG_WAIT_TIME()": "5580ee3a",
        "LOW_ANONYMITY_THRESHOLD()": "132d6275",
        "MAXIMUM_PERCENTAGE_FEE()": "dc79c2eb",
        "MAX_MERKLE_TREE_DEPTH()": "d0a1db84",
        "MEDIUM_ANONYMITY_THRESHOLD()": "5296bffd",
        "MEDIUM_POOL_THRESHOLD()": "37dbd120",
        "PERCENTAGE_MULTIPLIER()": "54111315",
        "PUBLIC_INPUTS_AMOUNTS_OFFSET()": "1d06a3cd",
        "PUBLIC_INPUTS_GROUP_SIZE()": "783e558f",
        "PUBLIC_INPUTS_SIZE()": "af28f7e8",
        "PUBLIC_INPUTS_TOKENS_OFFSET()": "f20d7495",
        "REVEAL_DELAY()": "a7bc4e30",
        "ROOT_HISTORY_SIZE()": "cd87a3b4",
        "SHORT_WAIT_TIME()": "145f9e2f",
        "SMALL_POOL_THRESHOLD()": "1ba15650",
        "ZERO_ELEMENT()": "871211df",
        "calculateFee(uint256)": "99a5d747",
        "commit(bytes32)": "f14fcbc8",
        "daoAddress()": "2131c68c",
        "deposit(bytes32)": "b214faa5",
        "fixedFee()": "91792d5b",
        "generateCommitment(address,uint256,uint256,uint256)": "7d57287a",
        "getAnonymityLevel()": "7d40f6d5",
        "getBalance(address)": "f8b2cb4f",
        "getFeeBreakdown(uint256)": "aac78c84",
        "getLatestRoot()": "5445b007",
        "getMaxPoolSize()": "0fbc8f5b",
        "getOptimalWithdrawTime()": "5e85407e",
        "getPoolSize()": "23845e4b",
        "getPoolStats()": "bbb85188",
        "getPoolUtilization()": "bf7d653b",
        "hashLeftRight(bytes32,bytes32)": "38bf282e",
        "i_depth()": "73d73202",
        "i_hasher()": "705f032f",
        "i_verifier()": "db9753a0",
        "isDepositValid(bytes32)": "50453f28",
        "isKnownRoot(bytes32)": "6d9833e3",
        "isPoolFull()": "093c87f3",
        "multiDeposit((address,uint256,bytes32)[])": "684d329c",
        "percentageFee()": "780a7ff0",
        "reveal(bytes32,bytes32,address,uint256)": "fa9b4689",
        "s_cachedSubtrees(uint256)": "ed7cf2df",
        "s_commitments(bytes32)": "9dc166b7",
        "s_currentRootIndex()": "57f65706",
        "s_nextLeafIndex()": "59f41a81",
        "s_nullifiers(bytes32)": "a20a941e",
        "s_pendingCommitments(bytes32)": "ee594ca4",
        "s_roots(uint256)": "9c8b91c1",
        "updateDAOAddress(address)": "d3f34ff1",
        "updateFees(uint256,uint256)": "6db79437",
        "withdraw(bytes,bytes32,bytes32[],address,address[],uint256[])": "a305c497",
        "zeros(uint256)": "e8295588"
    },
    "id": 85
}