{
    "abi": [
        {
            "type": "constructor",
            "inputs": [
                {
                    "name": "_governanceToken",
                    "type": "address",
                    "internalType": "contract IERC20"
                },
                {
                    "name": "_shadowPoolAddress",
                    "type": "address",
                    "internalType": "address"
                },
                {
                    "name": "_proposalThreshold",
                    "type": "uint256",
                    "internalType": "uint256"
                },
                {
                    "name": "_votingPeriod",
                    "type": "uint256",
                    "internalType": "uint256"
                },
                {
                    "name": "_quorumVotes",
                    "type": "uint256",
                    "internalType": "uint256"
                },
                {
                    "name": "_timelockDelay",
                    "type": "uint256",
                    "internalType": "uint256"
                },
                {
                    "name": "_maxActiveProposals",
                    "type": "uint256",
                    "internalType": "uint256"
                },
                {
                    "name": "_timelockController",
                    "type": "address",
                    "internalType": "contract TimelockController"
                }
            ],
            "stateMutability": "nonpayable"
        },
        {
            "type": "receive",
            "stateMutability": "payable"
        },
        {
            "type": "function",
            "name": "activeProposalCount",
            "inputs": [],
            "outputs": [
                {
                    "name": "",
                    "type": "uint256",
                    "internalType": "uint256"
                }
            ],
            "stateMutability": "view"
        },
        {
            "type": "function",
            "name": "anonymousVoting",
            "inputs": [],
            "outputs": [
                {
                    "name": "",
                    "type": "address",
                    "internalType": "contract AnonymousVoting"
                }
            ],
            "stateMutability": "view"
        },
        {
            "type": "function",
            "name": "anonymousVotingEnabled",
            "inputs": [],
            "outputs": [
                {
                    "name": "",
                    "type": "bool",
                    "internalType": "bool"
                }
            ],
            "stateMutability": "view"
        },
        {
            "type": "function",
            "name": "cancel",
            "inputs": [
                {
                    "name": "proposalId",
                    "type": "uint256",
                    "internalType": "uint256"
                }
            ],
            "outputs": [],
            "stateMutability": "nonpayable"
        },
        {
            "type": "function",
            "name": "castAnonymousVote",
            "inputs": [
                {
                    "name": "proposalId",
                    "type": "uint256",
                    "internalType": "uint256"
                },
                {
                    "name": "proof",
                    "type": "bytes",
                    "internalType": "bytes"
                },
                {
                    "name": "publicInputs",
                    "type": "bytes32[]",
                    "internalType": "bytes32[]"
                },
                {
                    "name": "support",
                    "type": "bool",
                    "internalType": "bool"
                }
            ],
            "outputs": [],
            "stateMutability": "nonpayable"
        },
        {
            "type": "function",
            "name": "castVote",
            "inputs": [
                {
                    "name": "proposalId",
                    "type": "uint256",
                    "internalType": "uint256"
                },
                {
                    "name": "support",
                    "type": "bool",
                    "internalType": "bool"
                }
            ],
            "outputs": [],
            "stateMutability": "nonpayable"
        },
        {
            "type": "function",
            "name": "emergencyRecoverOnPool",
            "inputs": [
                {
                    "name": "pool",
                    "type": "address",
                    "internalType": "address"
                },
                {
                    "name": "token",
                    "type": "address",
                    "internalType": "address"
                },
                {
                    "name": "amount",
                    "type": "uint256",
                    "internalType": "uint256"
                }
            ],
            "outputs": [],
            "stateMutability": "nonpayable"
        },
        {
            "type": "function",
            "name": "execute",
            "inputs": [
                {
                    "name": "proposalId",
                    "type": "uint256",
                    "internalType": "uint256"
                }
            ],
            "outputs": [],
            "stateMutability": "nonpayable"
        },
        {
            "type": "function",
            "name": "flashLoanProtectionEnabled",
            "inputs": [],
            "outputs": [
                {
                    "name": "",
                    "type": "bool",
                    "internalType": "bool"
                }
            ],
            "stateMutability": "view"
        },
        {
            "type": "function",
            "name": "getAgainstVotes",
            "inputs": [
                {
                    "name": "proposalId",
                    "type": "uint256",
                    "internalType": "uint256"
                }
            ],
            "outputs": [
                {
                    "name": "",
                    "type": "uint256",
                    "internalType": "uint256"
                }
            ],
            "stateMutability": "view"
        },
        {
            "type": "function",
            "name": "getCalldatas",
            "inputs": [
                {
                    "name": "proposalId",
                    "type": "uint256",
                    "internalType": "uint256"
                }
            ],
            "outputs": [
                {
                    "name": "",
                    "type": "bytes[]",
                    "internalType": "bytes[]"
                }
            ],
            "stateMutability": "view"
        },
        {
            "type": "function",
            "name": "getCanceled",
            "inputs": [
                {
                    "name": "proposalId",
                    "type": "uint256",
                    "internalType": "uint256"
                }
            ],
            "outputs": [
                {
                    "name": "",
                    "type": "bool",
                    "internalType": "bool"
                }
            ],
            "stateMutability": "view"
        },
        {
            "type": "function",
            "name": "getCombinedVoteResults",
            "inputs": [
                {
                    "name": "proposalId",
                    "type": "uint256",
                    "internalType": "uint256"
                }
            ],
            "outputs": [
                {
                    "name": "forVotes",
                    "type": "uint256",
                    "internalType": "uint256"
                },
                {
                    "name": "againstVotes",
                    "type": "uint256",
                    "internalType": "uint256"
                }
            ],
            "stateMutability": "view"
        },
        {
            "type": "function",
            "name": "getDescription",
            "inputs": [
                {
                    "name": "proposalId",
                    "type": "uint256",
                    "internalType": "uint256"
                }
            ],
            "outputs": [
                {
                    "name": "",
                    "type": "string",
                    "internalType": "string"
                }
            ],
            "stateMutability": "view"
        },
        {
            "type": "function",
            "name": "getEndBlock",
            "inputs": [
                {
                    "name": "proposalId",
                    "type": "uint256",
                    "internalType": "uint256"
                }
            ],
            "outputs": [
                {
                    "name": "",
                    "type": "uint256",
                    "internalType": "uint256"
                }
            ],
            "stateMutability": "view"
        },
        {
            "type": "function",
            "name": "getExecuted",
            "inputs": [
                {
                    "name": "proposalId",
                    "type": "uint256",
                    "internalType": "uint256"
                }
            ],
            "outputs": [
                {
                    "name": "",
                    "type": "bool",
                    "internalType": "bool"
                }
            ],
            "stateMutability": "view"
        },
        {
            "type": "function",
            "name": "getForVotes",
            "inputs": [
                {
                    "name": "proposalId",
                    "type": "uint256",
                    "internalType": "uint256"
                }
            ],
            "outputs": [
                {
                    "name": "",
                    "type": "uint256",
                    "internalType": "uint256"
                }
            ],
            "stateMutability": "view"
        },
        {
            "type": "function",
            "name": "getProposalState",
            "inputs": [
                {
                    "name": "proposalId",
                    "type": "uint256",
                    "internalType": "uint256"
                }
            ],
            "outputs": [
                {
                    "name": "",
                    "type": "uint8",
                    "internalType": "enum ShadowPoolDAO.ProposalState"
                }
            ],
            "stateMutability": "view"
        },
        {
            "type": "function",
            "name": "getProposer",
            "inputs": [
                {
                    "name": "proposalId",
                    "type": "uint256",
                    "internalType": "uint256"
                }
            ],
            "outputs": [
                {
                    "name": "",
                    "type": "address",
                    "internalType": "address"
                }
            ],
            "stateMutability": "view"
        },
        {
            "type": "function",
            "name": "getReceipt",
            "inputs": [
                {
                    "name": "proposalId",
                    "type": "uint256",
                    "internalType": "uint256"
                },
                {
                    "name": "voter",
                    "type": "address",
                    "internalType": "address"
                }
            ],
            "outputs": [
                {
                    "name": "",
                    "type": "tuple",
                    "internalType": "struct ShadowPoolDAO.Receipt",
                    "components": [
                        {
                            "name": "hasVoted",
                            "type": "bool",
                            "internalType": "bool"
                        },
                        {
                            "name": "support",
                            "type": "bool",
                            "internalType": "bool"
                        },
                        {
                            "name": "votes",
                            "type": "uint256",
                            "internalType": "uint256"
                        }
                    ]
                }
            ],
            "stateMutability": "view"
        },
        {
            "type": "function",
            "name": "getSignatures",
            "inputs": [
                {
                    "name": "proposalId",
                    "type": "uint256",
                    "internalType": "uint256"
                }
            ],
            "outputs": [
                {
                    "name": "",
                    "type": "string[]",
                    "internalType": "string[]"
                }
            ],
            "stateMutability": "view"
        },
        {
            "type": "function",
            "name": "getStartBlock",
            "inputs": [
                {
                    "name": "proposalId",
                    "type": "uint256",
                    "internalType": "uint256"
                }
            ],
            "outputs": [
                {
                    "name": "",
                    "type": "uint256",
                    "internalType": "uint256"
                }
            ],
            "stateMutability": "view"
        },
        {
            "type": "function",
            "name": "getTargets",
            "inputs": [
                {
                    "name": "proposalId",
                    "type": "uint256",
                    "internalType": "uint256"
                }
            ],
            "outputs": [
                {
                    "name": "",
                    "type": "address[]",
                    "internalType": "address[]"
                }
            ],
            "stateMutability": "view"
        },
        {
            "type": "function",
            "name": "getValues",
            "inputs": [
                {
                    "name": "proposalId",
                    "type": "uint256",
                    "internalType": "uint256"
                }
            ],
            "outputs": [
                {
                    "name": "",
                    "type": "uint256[]",
                    "internalType": "uint256[]"
                }
            ],
            "stateMutability": "view"
        },
        {
            "type": "function",
            "name": "getVotingPowerAt",
            "inputs": [
                {
                    "name": "account",
                    "type": "address",
                    "internalType": "address"
                },
                {
                    "name": "blockNumber",
                    "type": "uint256",
                    "internalType": "uint256"
                }
            ],
            "outputs": [
                {
                    "name": "",
                    "type": "uint256",
                    "internalType": "uint256"
                }
            ],
            "stateMutability": "view"
        },
        {
            "type": "function",
            "name": "governanceToken",
            "inputs": [],
            "outputs": [
                {
                    "name": "",
                    "type": "address",
                    "internalType": "contract IERC20"
                }
            ],
            "stateMutability": "view"
        },
        {
            "type": "function",
            "name": "latestProposalIds",
            "inputs": [
                {
                    "name": "",
                    "type": "address",
                    "internalType": "address"
                }
            ],
            "outputs": [
                {
                    "name": "",
                    "type": "uint256",
                    "internalType": "uint256"
                }
            ],
            "stateMutability": "view"
        },
        {
            "type": "function",
            "name": "maxActiveProposals",
            "inputs": [],
            "outputs": [
                {
                    "name": "",
                    "type": "uint256",
                    "internalType": "uint256"
                }
            ],
            "stateMutability": "view"
        },
        {
            "type": "function",
            "name": "proposalThreshold",
            "inputs": [],
            "outputs": [
                {
                    "name": "",
                    "type": "uint256",
                    "internalType": "uint256"
                }
            ],
            "stateMutability": "view"
        },
        {
            "type": "function",
            "name": "proposalTimelockIds",
            "inputs": [
                {
                    "name": "",
                    "type": "uint256",
                    "internalType": "uint256"
                }
            ],
            "outputs": [
                {
                    "name": "",
                    "type": "bytes32",
                    "internalType": "bytes32"
                }
            ],
            "stateMutability": "view"
        },
        {
            "type": "function",
            "name": "proposals",
            "inputs": [
                {
                    "name": "",
                    "type": "uint256",
                    "internalType": "uint256"
                }
            ],
            "outputs": [
                {
                    "name": "id",
                    "type": "uint256",
                    "internalType": "uint256"
                },
                {
                    "name": "proposer",
                    "type": "address",
                    "internalType": "address"
                },
                {
                    "name": "description",
                    "type": "string",
                    "internalType": "string"
                },
                {
                    "name": "startBlock",
                    "type": "uint256",
                    "internalType": "uint256"
                },
                {
                    "name": "endBlock",
                    "type": "uint256",
                    "internalType": "uint256"
                },
                {
                    "name": "forVotes",
                    "type": "uint256",
                    "internalType": "uint256"
                },
                {
                    "name": "againstVotes",
                    "type": "uint256",
                    "internalType": "uint256"
                },
                {
                    "name": "executed",
                    "type": "bool",
                    "internalType": "bool"
                },
                {
                    "name": "canceled",
                    "type": "bool",
                    "internalType": "bool"
                }
            ],
            "stateMutability": "view"
        },
        {
            "type": "function",
            "name": "propose",
            "inputs": [
                {
                    "name": "description",
                    "type": "string",
                    "internalType": "string"
                },
                {
                    "name": "targets",
                    "type": "address[]",
                    "internalType": "address[]"
                },
                {
                    "name": "values",
                    "type": "uint256[]",
                    "internalType": "uint256[]"
                },
                {
                    "name": "signatures",
                    "type": "string[]",
                    "internalType": "string[]"
                },
                {
                    "name": "calldatas",
                    "type": "bytes[]",
                    "internalType": "bytes[]"
                }
            ],
            "outputs": [
                {
                    "name": "proposalId",
                    "type": "uint256",
                    "internalType": "uint256"
                }
            ],
            "stateMutability": "nonpayable"
        },
        {
            "type": "function",
            "name": "quorumVotes",
            "inputs": [],
            "outputs": [
                {
                    "name": "",
                    "type": "uint256",
                    "internalType": "uint256"
                }
            ],
            "stateMutability": "view"
        },
        {
            "type": "function",
            "name": "setAnonymousVotingEnabled",
            "inputs": [
                {
                    "name": "enabled",
                    "type": "bool",
                    "internalType": "bool"
                }
            ],
            "outputs": [],
            "stateMutability": "nonpayable"
        },
        {
            "type": "function",
            "name": "setFlashLoanProtection",
            "inputs": [
                {
                    "name": "enabled",
                    "type": "bool",
                    "internalType": "bool"
                }
            ],
            "outputs": [],
            "stateMutability": "nonpayable"
        },
        {
            "type": "function",
            "name": "shadowPool",
            "inputs": [],
            "outputs": [
                {
                    "name": "",
                    "type": "address",
                    "internalType": "contract ShadowPool"
                }
            ],
            "stateMutability": "view"
        },
        {
            "type": "function",
            "name": "timelockController",
            "inputs": [],
            "outputs": [
                {
                    "name": "",
                    "type": "address",
                    "internalType": "contract TimelockController"
                }
            ],
            "stateMutability": "view"
        },
        {
            "type": "function",
            "name": "timelockDelay",
            "inputs": [],
            "outputs": [
                {
                    "name": "",
                    "type": "uint256",
                    "internalType": "uint256"
                }
            ],
            "stateMutability": "view"
        },
        {
            "type": "function",
            "name": "updateAnonymousVotingContract",
            "inputs": [
                {
                    "name": "newAnonymousVoting",
                    "type": "address",
                    "internalType": "address"
                }
            ],
            "outputs": [],
            "stateMutability": "nonpayable"
        },
        {
            "type": "function",
            "name": "updateParameters",
            "inputs": [
                {
                    "name": "_proposalThreshold",
                    "type": "uint256",
                    "internalType": "uint256"
                },
                {
                    "name": "_votingPeriod",
                    "type": "uint256",
                    "internalType": "uint256"
                },
                {
                    "name": "_quorumVotes",
                    "type": "uint256",
                    "internalType": "uint256"
                },
                {
                    "name": "_timelockDelay",
                    "type": "uint256",
                    "internalType": "uint256"
                },
                {
                    "name": "_maxActiveProposals",
                    "type": "uint256",
                    "internalType": "uint256"
                }
            ],
            "outputs": [],
            "stateMutability": "nonpayable"
        },
        {
            "type": "function",
            "name": "updateShadowPoolAddress",
            "inputs": [
                {
                    "name": "_newShadowPoolAddress",
                    "type": "address",
                    "internalType": "address"
                }
            ],
            "outputs": [],
            "stateMutability": "nonpayable"
        },
        {
            "type": "function",
            "name": "updateTimelockController",
            "inputs": [
                {
                    "name": "_newTimelockController",
                    "type": "address",
                    "internalType": "contract TimelockController"
                }
            ],
            "outputs": [],
            "stateMutability": "nonpayable"
        },
        {
            "type": "function",
            "name": "votingPeriod",
            "inputs": [],
            "outputs": [
                {
                    "name": "",
                    "type": "uint256",
                    "internalType": "uint256"
                }
            ],
            "stateMutability": "view"
        },
        {
            "type": "function",
            "name": "votingPowerSnapshots",
            "inputs": [
                {
                    "name": "",
                    "type": "uint256",
                    "internalType": "uint256"
                },
                {
                    "name": "",
                    "type": "address",
                    "internalType": "address"
                }
            ],
            "outputs": [
                {
                    "name": "",
                    "type": "uint256",
                    "internalType": "uint256"
                }
            ],
            "stateMutability": "view"
        },
        {
            "type": "event",
            "name": "AnonymousVotesUpdated",
            "inputs": [
                {
                    "name": "proposalId",
                    "type": "uint256",
                    "indexed": true,
                    "internalType": "uint256"
                },
                {
                    "name": "forVotes",
                    "type": "uint256",
                    "indexed": false,
                    "internalType": "uint256"
                },
                {
                    "name": "againstVotes",
                    "type": "uint256",
                    "indexed": false,
                    "internalType": "uint256"
                }
            ],
            "anonymous": false
        },
        {
            "type": "event",
            "name": "AnonymousVotingContractUpdated",
            "inputs": [
                {
                    "name": "oldContract",
                    "type": "address",
                    "indexed": true,
                    "internalType": "address"
                },
                {
                    "name": "newContract",
                    "type": "address",
                    "indexed": true,
                    "internalType": "address"
                }
            ],
            "anonymous": false
        },
        {
            "type": "event",
            "name": "AnonymousVotingEnabled",
            "inputs": [
                {
                    "name": "enabled",
                    "type": "bool",
                    "indexed": false,
                    "internalType": "bool"
                }
            ],
            "anonymous": false
        },
        {
            "type": "event",
            "name": "FlashLoanProtectionUpdated",
            "inputs": [
                {
                    "name": "enabled",
                    "type": "bool",
                    "indexed": false,
                    "internalType": "bool"
                }
            ],
            "anonymous": false
        },
        {
            "type": "event",
            "name": "ParametersUpdated",
            "inputs": [
                {
                    "name": "proposalThreshold",
                    "type": "uint256",
                    "indexed": false,
                    "internalType": "uint256"
                },
                {
                    "name": "votingPeriod",
                    "type": "uint256",
                    "indexed": false,
                    "internalType": "uint256"
                },
                {
                    "name": "quorumVotes",
                    "type": "uint256",
                    "indexed": false,
                    "internalType": "uint256"
                },
                {
                    "name": "timelockDelay",
                    "type": "uint256",
                    "indexed": false,
                    "internalType": "uint256"
                },
                {
                    "name": "maxActiveProposals",
                    "type": "uint256",
                    "indexed": false,
                    "internalType": "uint256"
                }
            ],
            "anonymous": false
        },
        {
            "type": "event",
            "name": "ProposalCanceled",
            "inputs": [
                {
                    "name": "proposalId",
                    "type": "uint256",
                    "indexed": true,
                    "internalType": "uint256"
                }
            ],
            "anonymous": false
        },
        {
            "type": "event",
            "name": "ProposalCreated",
            "inputs": [
                {
                    "name": "proposalId",
                    "type": "uint256",
                    "indexed": true,
                    "internalType": "uint256"
                },
                {
                    "name": "proposer",
                    "type": "address",
                    "indexed": true,
                    "internalType": "address"
                },
                {
                    "name": "description",
                    "type": "string",
                    "indexed": false,
                    "internalType": "string"
                },
                {
                    "name": "targets",
                    "type": "address[]",
                    "indexed": false,
                    "internalType": "address[]"
                },
                {
                    "name": "values",
                    "type": "uint256[]",
                    "indexed": false,
                    "internalType": "uint256[]"
                },
                {
                    "name": "signatures",
                    "type": "string[]",
                    "indexed": false,
                    "internalType": "string[]"
                },
                {
                    "name": "calldatas",
                    "type": "bytes[]",
                    "indexed": false,
                    "internalType": "bytes[]"
                },
                {
                    "name": "startBlock",
                    "type": "uint256",
                    "indexed": false,
                    "internalType": "uint256"
                },
                {
                    "name": "endBlock",
                    "type": "uint256",
                    "indexed": false,
                    "internalType": "uint256"
                }
            ],
            "anonymous": false
        },
        {
            "type": "event",
            "name": "ProposalExecuted",
            "inputs": [
                {
                    "name": "proposalId",
                    "type": "uint256",
                    "indexed": true,
                    "internalType": "uint256"
                }
            ],
            "anonymous": false
        },
        {
            "type": "event",
            "name": "ProposalQueued",
            "inputs": [
                {
                    "name": "proposalId",
                    "type": "uint256",
                    "indexed": true,
                    "internalType": "uint256"
                },
                {
                    "name": "eta",
                    "type": "uint256",
                    "indexed": false,
                    "internalType": "uint256"
                }
            ],
            "anonymous": false
        },
        {
            "type": "event",
            "name": "ShadowPoolAddressUpdated",
            "inputs": [
                {
                    "name": "oldAddress",
                    "type": "address",
                    "indexed": true,
                    "internalType": "address"
                },
                {
                    "name": "newAddress",
                    "type": "address",
                    "indexed": true,
                    "internalType": "address"
                }
            ],
            "anonymous": false
        },
        {
            "type": "event",
            "name": "TimelockControllerUpdated",
            "inputs": [
                {
                    "name": "oldTimelock",
                    "type": "address",
                    "indexed": true,
                    "internalType": "address"
                },
                {
                    "name": "newTimelock",
                    "type": "address",
                    "indexed": true,
                    "internalType": "address"
                }
            ],
            "anonymous": false
        },
        {
            "type": "event",
            "name": "VoteCast",
            "inputs": [
                {
                    "name": "voter",
                    "type": "address",
                    "indexed": true,
                    "internalType": "address"
                },
                {
                    "name": "proposalId",
                    "type": "uint256",
                    "indexed": true,
                    "internalType": "uint256"
                },
                {
                    "name": "support",
                    "type": "bool",
                    "indexed": false,
                    "internalType": "bool"
                },
                {
                    "name": "votes",
                    "type": "uint256",
                    "indexed": false,
                    "internalType": "uint256"
                }
            ],
            "anonymous": false
        },
        {
            "type": "error",
            "name": "DAO__AlreadyVoted",
            "inputs": []
        },
        {
            "type": "error",
            "name": "DAO__AnonymousVotingNotEnabled",
            "inputs": []
        },
        {
            "type": "error",
            "name": "DAO__ExecutionFailed",
            "inputs": []
        },
        {
            "type": "error",
            "name": "DAO__InsufficientTokens",
            "inputs": []
        },
        {
            "type": "error",
            "name": "DAO__InvalidAnonymousVotingContract",
            "inputs": []
        },
        {
            "type": "error",
            "name": "DAO__InvalidProposal",
            "inputs": []
        },
        {
            "type": "error",
            "name": "DAO__ProposalAlreadyCanceled",
            "inputs": []
        },
        {
            "type": "error",
            "name": "DAO__ProposalAlreadyExecuted",
            "inputs": []
        },
        {
            "type": "error",
            "name": "DAO__ProposalNotActive",
            "inputs": []
        },
        {
            "type": "error",
            "name": "DAO__ProposalNotFound",
            "inputs": []
        },
        {
            "type": "error",
            "name": "DAO__TimelockNotExpired",
            "inputs": []
        },
        {
            "type": "error",
            "name": "DAO__TooManyActiveProposals",
            "inputs": []
        },
        {
            "type": "error",
            "name": "ReentrancyGuardReentrantCall",
            "inputs": []
        }
    ],
    "bytecode": {
        "object": "0x60a060405234801561000f575f5ffd5b50604051613b56380380613b5683398101604081905261002e91610103565b60015f556001600160a01b03871661009e5760405162461bcd60e51b815260206004820152602960248201527f536861646f77506f6f6c20616464726573732063616e6e6f74206265207a65726044820152686f206164647265737360b81b606482015260840160405180910390fd5b6001600160a01b03978816608052600180549789166001600160a01b03199889161790556004959095556005939093556006919091556007556008556003805491909316911617905561017e565b6001600160a01b0381168114610100575f5ffd5b50565b5f5f5f5f5f5f5f5f610100898b03121561011b575f5ffd5b8851610126816100ec565b60208a0151909850610137816100ec565b60408a015160608b015160808c015160a08d015160c08e015160e08f0151959c50939a5091985096509450925061016d816100ec565b809150509295985092959890939650565b6080516139a46101b25f395f81816109520152818161104e01528181611dd301528181611ebc0152611f6a01526139a45ff3fe6080604052600436106102da575f3560e01c806376e430991161017b578063e0450353116100d1578063eef09bad11610087578063f96dae0a11610062578063f96dae0a14610941578063fa11e85c14610974578063fe0d94c1146109aa575f5ffd5b8063eef09bad146108e1578063f3388e75146108f6578063f4eccb8f14610922575f5ffd5b8063e23a9a52116100b7578063e23a9a521461085e578063eaeded5f146108a3578063ecc097ff146108c2575f5ffd5b8063e045035314610805578063e14bd8741461081a575f5ffd5b80639080936f11610131578063b58131b01161010c578063b58131b0146107a3578063b7622dd4146107b8578063c863b48e146107d7575f5ffd5b80639080936f1461071f5780639b826fe11461074b578063b29e522c14610777575f5ffd5b80638864a153116101615780638864a153146106ac5780638c8ab7ad146106d85780638da7e72c14610706575f5ffd5b806376e430991461067857806377b745951461068d575f5ffd5b80631cb1f654116102305780632daacd68116101e65780636d61de41116101c15780636d61de41146105f857806370d050301461061657806374dd178b1461064c575f5ffd5b80632daacd681461055c57806340e58ee5146105ad5780634925ec55146105cc575f5ffd5b80631fb21cbb116102165780631fb21cbb146104d2578063219475071461050657806324bc1a6414610547575f5ffd5b80631cb1f654146104945780631e83a786146104b3575f5ffd5b80631084500711610290578063144f0b321161026b578063144f0b321461041c57806315373e3d1461044a57806317977c6114610469575f5ffd5b806310845007146103bf57806311889ffc146103de57806313d2b6c6146103fd575f5ffd5b806302a251a3116102c057806302a251a31461035e5780630fbb3dc814610373578063103810081461039e575f5ffd5b8063013cf08b146102e557806301b2320e14610322575f5ffd5b366102e157005b5f5ffd5b3480156102f0575f5ffd5b506103046102ff366004612a3f565b6109c9565b60405161031999989796959493929190612aa2565b60405180910390f35b34801561032d575f5ffd5b5061035061033c366004612a3f565b5f908152600d602052604090206007015490565b604051908152602001610319565b348015610369575f5ffd5b5061035060055481565b34801561037e575f5ffd5b5061035061038d366004612a3f565b600c6020525f908152604090205481565b3480156103a9575f5ffd5b506103bd6103b8366004612b28565b610ab3565b005b3480156103ca575f5ffd5b506103bd6103d9366004612b8b565b610b87565b3480156103e9575f5ffd5b506103bd6103f8366004612c63565b610cb0565b348015610408575f5ffd5b506103bd610417366004612b28565b610e32565b348015610427575f5ffd5b50610350610436366004612a3f565b5f908152600d60205260409020600a015490565b348015610455575f5ffd5b506103bd610464366004612c7e565b610f01565b348015610474575f5ffd5b50610350610483366004612c63565b600e6020525f908152604090205481565b34801561049f575f5ffd5b506103bd6104ae366004612cac565b611264565b3480156104be575f5ffd5b506103bd6104cd366004612c63565b6112ec565b3480156104dd575f5ffd5b506104f16104ec366004612a3f565b611485565b60408051928352602083019190915201610319565b348015610511575f5ffd5b50610537610520366004612a3f565b5f908152600d60205260409020600b015460ff1690565b6040519015158152602001610319565b348015610552575f5ffd5b5061035060065481565b348015610567575f5ffd5b506002546105889073ffffffffffffffffffffffffffffffffffffffff1681565b60405173ffffffffffffffffffffffffffffffffffffffff9091168152602001610319565b3480156105b8575f5ffd5b506103bd6105c7366004612a3f565b611580565b3480156105d7575f5ffd5b506105eb6105e6366004612a3f565b611702565b6040516103199190612cea565b348015610603575f5ffd5b50600a5461053790610100900460ff1681565b348015610621575f5ffd5b50610537610630366004612a3f565b5f908152600d60205260409020600b0154610100900460ff1690565b348015610657575f5ffd5b5061066b610666366004612a3f565b6117a4565b6040516103199190612d7b565b348015610683575f5ffd5b5061035060095481565b348015610698575f5ffd5b506103bd6106a7366004612c63565b61188c565b3480156106b7575f5ffd5b506001546105889073ffffffffffffffffffffffffffffffffffffffff1681565b3480156106e3575f5ffd5b506103506106f2366004612a3f565b5f908152600d602052604090206008015490565b348015610711575f5ffd5b50600a546105379060ff1681565b34801561072a575f5ffd5b5061073e610739366004612a3f565b611a0e565b6040516103199190612dba565b348015610756575f5ffd5b5061076a610765366004612a3f565b611b3d565b6040516103199190612e49565b348015610782575f5ffd5b50610796610791366004612a3f565b611bb5565b6040516103199190612e8b565b3480156107ae575f5ffd5b5061035060045481565b3480156107c3575f5ffd5b506103bd6107d2366004612e9d565b611c16565b3480156107e2575f5ffd5b506103506107f1366004612a3f565b5f908152600d602052604090206009015490565b348015610810575f5ffd5b5061035060085481565b348015610825575f5ffd5b50610588610834366004612a3f565b5f908152600d602052604090206001015473ffffffffffffffffffffffffffffffffffffffff1690565b348015610869575f5ffd5b5061087d610878366004612ed4565b611cff565b604080518251151581526020808401511515908201529181015190820152606001610319565b3480156108ae575f5ffd5b506103506108bd366004612ef7565b611d7d565b3480156108cd575f5ffd5b506103506108dc366004613234565b611f34565b3480156108ec575f5ffd5b5061035060075481565b348015610901575f5ffd5b506003546105889073ffffffffffffffffffffffffffffffffffffffff1681565b34801561092d575f5ffd5b5061066b61093c366004612a3f565b612075565b34801561094c575f5ffd5b506105887f000000000000000000000000000000000000000000000000000000000000000081565b34801561097f575f5ffd5b5061035061098e366004612ed4565b600b60209081525f928352604080842090915290825290205481565b3480156109b5575f5ffd5b506103bd6109c4366004612a3f565b612152565b600d6020525f9081526040902080546001820154600283018054929373ffffffffffffffffffffffffffffffffffffffff90921692610a0790613317565b80601f0160208091040260200160405190810160405280929190818152602001828054610a3390613317565b8015610a7e5780601f10610a5557610100808354040283529160200191610a7e565b820191905f5260205f20905b815481529060010190602001808311610a6157829003601f168201915b505050600784015460088501546009860154600a870154600b9097015495969295919450925060ff8082169161010090041689565b333014610b21576040517f08c379a000000000000000000000000000000000000000000000000000000000815260206004820152601b60248201527f44414f3a204f6e6c792073656c662d63616c6c20616c6c6f776564000000000060448201526064015b60405180910390fd5b600a80547fffffffffffffffffffffffffffffffffffffffffffffffffffffffffffffff00168215159081179091556040519081527f86320cb49cd2f348c6f786028d4a947186001392f7ec1105add830a1f4561d8e906020015b60405180910390a150565b600a5460ff16610bc3576040517fd64d821300000000000000000000000000000000000000000000000000000000815260040160405180910390fd5b60025473ffffffffffffffffffffffffffffffffffffffff16610c12576040517f280edd5900000000000000000000000000000000000000000000000000000000815260040160405180910390fd5b6002546040517f1084500700000000000000000000000000000000000000000000000000000000815273ffffffffffffffffffffffffffffffffffffffff90911690631084500790610c7290899089908990899089908990600401613368565b5f604051808303815f87803b158015610c89575f5ffd5b505af1158015610c9b573d5f5f3e3d5ffd5b50505050610ca886612344565b505050505050565b333014610d19576040517f08c379a000000000000000000000000000000000000000000000000000000000815260206004820152601b60248201527f44414f3a204f6e6c792073656c662d63616c6c20616c6c6f77656400000000006044820152606401610b18565b73ffffffffffffffffffffffffffffffffffffffff8116610dbc576040517f08c379a000000000000000000000000000000000000000000000000000000000815260206004820152602e60248201527f416e6f6e796d6f7573566f74696e6720616464726573732063616e6e6f74206260448201527f65207a65726f20616464726573730000000000000000000000000000000000006064820152608401610b18565b6002805473ffffffffffffffffffffffffffffffffffffffff8381167fffffffffffffffffffffffff0000000000000000000000000000000000000000831681179093556040519116919082907ff192af866b11f8672de26a674ef1a1f25628aff54b39ea9d042a7f7e4baeeb23905f90a35050565b333014610e9b576040517f08c379a000000000000000000000000000000000000000000000000000000000815260206004820152601b60248201527f44414f3a204f6e6c792073656c662d63616c6c20616c6c6f77656400000000006044820152606401610b18565b600a8054821515610100027fffffffffffffffffffffffffffffffffffffffffffffffffffffffffffff00ff9091161790556040517f8b50432992963af4800e2791e6d03bf9fa14c1a09cea7892afafb47ceb2aeef290610b7c90831515815260200190565b610f09612467565b5f828152600d602052604090206001015473ffffffffffffffffffffffffffffffffffffffff16610f66576040517f395c079d00000000000000000000000000000000000000000000000000000000815260040160405180910390fd5b6001610f7183611a0e565b6007811115610f8257610f82612d8d565b14610fb9576040517fe5c3e17900000000000000000000000000000000000000000000000000000000815260040160405180910390fd5b5f828152600d60209081526040808320338452600c0190915290205460ff161561100f576040517f57a9a89f00000000000000000000000000000000000000000000000000000000815260040160405180910390fd5b600a545f90610100900460ff166110d1576040517f70a082310000000000000000000000000000000000000000000000000000000081523360048201527f000000000000000000000000000000000000000000000000000000000000000073ffffffffffffffffffffffffffffffffffffffff16906370a0823190602401602060405180830381865afa1580156110a8573d5f5f3e3d5ffd5b505050506040513d601f19601f820116820180604052508101906110cc9190613413565b6110ed565b5f838152600d60205260409020600701546110ed903390611d7d565b9050805f03611128576040517f75d86ab300000000000000000000000000000000000000000000000000000000815260040160405180910390fd5b6040805160608101825260018082528415801560208085019182528486018781525f8a8152600d8352878120338252600c019092529590209351845491517fffffffffffffffffffffffffffffffffffffffffffffffffffffffffffff00009092169015157fffffffffffffffffffffffffffffffffffffffffffffffffffffffffffff00ff16176101009115159190910217835592519101556111f1575f838152600d6020526040812060090180548392906111e6908490613457565b909155506112179050565b5f838152600d60205260408120600a018054839290611211908490613457565b90915550505b60408051831515815260208101839052849133917f877856338e13f63d0c36822ff0ef736b80934cd90574a3a5bc9262c39d217c46910160405180910390a35061126060015f55565b5050565b6040517f9639011e00000000000000000000000000000000000000000000000000000000815273ffffffffffffffffffffffffffffffffffffffff838116600483015260248201839052841690639639011e906044015f604051808303815f87803b1580156112d1575f5ffd5b505af11580156112e3573d5f5f3e3d5ffd5b50505050505050565b6112f4612467565b33301461135d576040517f08c379a000000000000000000000000000000000000000000000000000000000815260206004820152601b60248201527f44414f3a204f6e6c792073656c662d63616c6c20616c6c6f77656400000000006044820152606401610b18565b60015473ffffffffffffffffffffffffffffffffffffffff908116908216611407576040517f08c379a000000000000000000000000000000000000000000000000000000000815260206004820152602960248201527f536861646f77506f6f6c20616464726573732063616e6e6f74206265207a657260448201527f6f206164647265737300000000000000000000000000000000000000000000006064820152608401610b18565b600180547fffffffffffffffffffffffff00000000000000000000000000000000000000001673ffffffffffffffffffffffffffffffffffffffff84811691821790925560405190918316907f85f77b2af87578e439f455507665cfc6baea876d0d9401fdb91102e03f9cde6c905f90a35061148260015f55565b50565b5f818152600d602052604090206009810154600a8083015490549192909160ff1680156114c9575060025473ffffffffffffffffffffffffffffffffffffffff1615155b1561157a576002546040517f47c66140000000000000000000000000000000000000000000000000000000008152600481018690525f9173ffffffffffffffffffffffffffffffffffffffff16906347c661409060240160c060405180830381865afa15801561153b573d5f5f3e3d5ffd5b505050506040513d601f19601f8201168201806040525081019061155f919061346a565b9050806060015115611578578051602082015190945092505b505b50915091565b611588612467565b5f818152600d602052604090206001015473ffffffffffffffffffffffffffffffffffffffff1633146115e7576040517f4a53210400000000000000000000000000000000000000000000000000000000815260040160405180910390fd5b5f818152600d60205260409020600b015460ff1615611632576040517f0eb828b800000000000000000000000000000000000000000000000000000000815260040160405180910390fd5b5f818152600d60205260409020600b0154610100900460ff1615611682576040517fa1b171dd00000000000000000000000000000000000000000000000000000000815260040160405180910390fd5b5f818152600d60205260408120600b0180547fffffffffffffffffffffffffffffffffffffffffffffffffffffffffffff00ff1661010017905560098054916116ca836134ea565b909155505060405181907f789cf55be980739dad1d0699b93b58e806b51c9d96619bfa8fe0a28abaa7b30c905f90a261148260015f55565b5f818152600d6020526040902060020180546060919061172190613317565b80601f016020809104026020016040519081016040528092919081815260200182805461174d90613317565b80156117985780601f1061176f57610100808354040283529160200191611798565b820191905f5260205f20905b81548152906001019060200180831161177b57829003601f168201915b50505050509050919050565b6060600d5f8381526020019081526020015f20600601805480602002602001604051908101604052809291908181526020015f905b82821015611881578382905f5260205f200180546117f690613317565b80601f016020809104026020016040519081016040528092919081815260200182805461182290613317565b801561186d5780601f106118445761010080835404028352916020019161186d565b820191905f5260205f20905b81548152906001019060200180831161185057829003601f168201915b5050505050815260200190600101906117d9565b505050509050919050565b3330146118f5576040517f08c379a000000000000000000000000000000000000000000000000000000000815260206004820152601b60248201527f44414f3a204f6e6c792073656c662d63616c6c20616c6c6f77656400000000006044820152606401610b18565b73ffffffffffffffffffffffffffffffffffffffff8116611998576040517f08c379a000000000000000000000000000000000000000000000000000000000815260206004820152602260248201527f54696d656c6f636b20636f6e74726f6c6c65722063616e6e6f74206265207a6560448201527f726f0000000000000000000000000000000000000000000000000000000000006064820152608401610b18565b6003805473ffffffffffffffffffffffffffffffffffffffff8381167fffffffffffffffffffffffff0000000000000000000000000000000000000000831681179093556040519116919082907fb5ebe497f40e0b6ca11af872f3c2f1217a3374301977ba17bd6e9c49e7da411c905f90a35050565b5f818152600d602052604081206001015473ffffffffffffffffffffffffffffffffffffffff16611a6b576040517f395c079d00000000000000000000000000000000000000000000000000000000815260040160405180910390fd5b5f828152600d60205260409020600b0154610100900460ff1615611a9157506002919050565b5f828152600d60205260409020600b015460ff1615611ab257506007919050565b5f828152600d6020526040902060070154431015611ad157505f919050565b5f828152600d6020526040902060080154431115611b35575f828152600d60205260409020600a810154600990910154118015611b2057506006545f838152600d602052604090206009015410155b15611b2d57506004919050565b506003919050565b506001919050565b5f818152600d602090815260409182902060030180548351818402810184019094528084526060939283018282801561179857602002820191905f5260205f20905b815473ffffffffffffffffffffffffffffffffffffffff168152600190910190602001808311611b7f5750505050509050919050565b5f818152600d602090815260409182902060040180548351818402810184019094528084526060939283018282801561179857602002820191905f5260205f20905b815481526020019060010190808311611bf75750505050509050919050565b611c1e612467565b333014611c87576040517f08c379a000000000000000000000000000000000000000000000000000000000815260206004820152601b60248201527f44414f3a204f6e6c792073656c662d63616c6c20616c6c6f77656400000000006044820152606401610b18565b60048590556005849055600683905560078290556008819055604080518681526020810186905290810184905260608101839052608081018290527fd83cef869924c3f9f84c744735163b075c470a9725a528100c5350524e073ffd9060a00160405180910390a1611cf860015f55565b5050505050565b60408051606080820183525f8083526020808401829052928401819052858152600d835283812073ffffffffffffffffffffffffffffffffffffffff86168252600c01835283902083519182018452805460ff8082161515845261010090910416151592820192909252600190910154918101919091525b92915050565b600a545f90610100900460ff16611e43576040517f70a0823100000000000000000000000000000000000000000000000000000000815273ffffffffffffffffffffffffffffffffffffffff84811660048301527f000000000000000000000000000000000000000000000000000000000000000016906370a0823190602401602060405180830381865afa158015611e18573d5f5f3e3d5ffd5b505050506040513d601f19601f82011682018060405250810190611e3c9190613413565b9050611d77565b5f828152600b6020908152604080832073ffffffffffffffffffffffffffffffffffffffff8716845290915290205480611f2a576040517f70a0823100000000000000000000000000000000000000000000000000000000815273ffffffffffffffffffffffffffffffffffffffff85811660048301527f000000000000000000000000000000000000000000000000000000000000000016906370a0823190602401602060405180830381865afa158015611f01573d5f5f3e3d5ffd5b505050506040513d601f19601f82011682018060405250810190611f259190613413565b611f2c565b805b949350505050565b600480546040517f70a0823100000000000000000000000000000000000000000000000000000000815233928101929092525f917f000000000000000000000000000000000000000000000000000000000000000073ffffffffffffffffffffffffffffffffffffffff16906370a0823190602401602060405180830381865afa158015611fc4573d5f5f3e3d5ffd5b505050506040513d601f19601f82011682018060405250810190611fe89190613413565b1015612020576040517f75d86ab300000000000000000000000000000000000000000000000000000000815260040160405180910390fd5b6008546009541061205d576040517f5f498c2000000000000000000000000000000000000000000000000000000000815260040160405180910390fd5b61206b3387878787876124a8565b9695505050505050565b6060600d5f8381526020019081526020015f20600501805480602002602001604051908101604052809291908181526020015f905b82821015611881578382905f5260205f200180546120c790613317565b80601f01602080910402602001604051908101604052809291908181526020018280546120f390613317565b801561213e5780601f106121155761010080835404028352916020019161213e565b820191905f5260205f20905b81548152906001019060200180831161212157829003601f168201915b5050505050815260200190600101906120aa565b61215a612467565b5f818152600d602052604090206001015473ffffffffffffffffffffffffffffffffffffffff166121b7576040517f395c079d00000000000000000000000000000000000000000000000000000000815260040160405180910390fd5b5f818152600d60205260409020600b015460ff1615612202576040517f0eb828b800000000000000000000000000000000000000000000000000000000815260040160405180910390fd5b5f818152600d60205260409020600b0154610100900460ff1615612252576040517fa1b171dd00000000000000000000000000000000000000000000000000000000815260040160405180910390fd5b5f61225c82611a0e565b9050600481600781111561227257612272612d8d565b146122a9576040517fe5c3e17900000000000000000000000000000000000000000000000000000000815260040160405180910390fd5b5f6122b38361266d565b5f848152600c60209081526040808320849055600d9091528120600b0180547fffffffffffffffffffffffffffffffffffffffffffffffffffffffffffffff00166001179055600980549293509061230a836134ea565b909155505060405183907f712ae1383f79ac853f8d882153778e0260ef8f03b504e2866e0593e04d2b291f905f90a2505061148260015f55565b60025473ffffffffffffffffffffffffffffffffffffffff166123645750565b6002546040517f47c66140000000000000000000000000000000000000000000000000000000008152600481018390525f9173ffffffffffffffffffffffffffffffffffffffff16906347c661409060240160c060405180830381865afa1580156123d1573d5f5f3e3d5ffd5b505050506040513d601f19601f820116820180604052508101906123f5919061346a565b90508060600151156112605780515f838152600d6020908152604091829020600981019390935580840151600a909301839055835182519081529081019290925283917f5bedcab13e674b676ad7fb8032a93b386349c90d8772bd65eec77c66511779cc910160405180910390a25050565b60025f54036124a2576040517f3ee5aeb500000000000000000000000000000000000000000000000000000000815260040160405180910390fd5b60025f55565b5f6124b1612815565b5f818152600d602052604090208181556001810180547fffffffffffffffffffffffff00000000000000000000000000000000000000001673ffffffffffffffffffffffffffffffffffffffff8b16179055909150600281016125148882613567565b50855161252a906003830190602089019061285b565b50845161254090600483019060208801906128e3565b508351612556906005830190602087019061291c565b50825161256c906006830190602086019061296c565b50612578436001613457565b600782015560055461258a9043613457565b60088201555f6009808301829055600a8301829055600b830180547fffffffffffffffffffffffffffffffffffffffffffffffffffffffffffff000016905573ffffffffffffffffffffffffffffffffffffffff8a168252600e602052604082208490558054916125fa8361367e565b91905055508773ffffffffffffffffffffffffffffffffffffffff16827fab9f60a3bde2c641f52aeaea0292d42ce6be9c0dc494648cb354ac244cb5587989898989898860070154896008015460405161265a97969594939291906136b5565b60405180910390a3509695505050505050565b5f818152600d602090815260408083209051909183916126949186916002860191016137c9565b604080517fffffffffffffffffffffffffffffffffffffffffffffffffffffffffffffffe0818403018152908290528051602090910120600380547fb1c5f4270000000000000000000000000000000000000000000000000000000084529193505f9273ffffffffffffffffffffffffffffffffffffffff9092169163b1c5f42791612733919087019060048089019160068a019188918a91016138ca565b602060405180830381865afa15801561274e573d5f5f3e3d5ffd5b505050506040513d601f19601f820116820180604052508101906127729190613413565b600380546007546040517f8f2a0bb000000000000000000000000000000000000000000000000000000000815293945073ffffffffffffffffffffffffffffffffffffffff90911692638f2a0bb0926127df92908801916004808a019260068b01925f928b929101613917565b5f604051808303815f87803b1580156127f6575f5ffd5b505af1158015612808573d5f5f3e3d5ffd5b5092979650505050505050565b5f805b5f818152600d602052604090206001015473ffffffffffffffffffffffffffffffffffffffff1615612856578061284e8161367e565b915050612818565b919050565b828054828255905f5260205f209081019282156128d3579160200282015b828111156128d357825182547fffffffffffffffffffffffff00000000000000000000000000000000000000001673ffffffffffffffffffffffffffffffffffffffff909116178255602090920191600190910190612879565b506128df9291506129bc565b5090565b828054828255905f5260205f209081019282156128d3579160200282015b828111156128d3578251825591602001919060010190612901565b828054828255905f5260205f20908101928215612960579160200282015b8281111561296057825182906129509082613567565b509160200191906001019061293a565b506128df9291506129d0565b828054828255905f5260205f209081019282156129b0579160200282015b828111156129b057825182906129a09082613567565b509160200191906001019061298a565b506128df9291506129ec565b5b808211156128df575f81556001016129bd565b808211156128df575f6129e38282612a08565b506001016129d0565b808211156128df575f6129ff8282612a08565b506001016129ec565b508054612a1490613317565b5f825580601f10612a23575050565b601f0160209004905f5260205f209081019061148291906129bc565b5f60208284031215612a4f575f5ffd5b5035919050565b5f81518084528060208401602086015e5f6020828601015260207fffffffffffffffffffffffffffffffffffffffffffffffffffffffffffffffe0601f83011685010191505092915050565b89815273ffffffffffffffffffffffffffffffffffffffff8916602082015261012060408201525f612ad861012083018a612a56565b606083019890985250608081019590955260a085019390935260c0840191909152151560e08301521515610100909101529392505050565b8015158114611482575f5ffd5b803561285681612b10565b5f60208284031215612b38575f5ffd5b8135611f2a81612b10565b5f5f83601f840112612b53575f5ffd5b50813567ffffffffffffffff811115612b6a575f5ffd5b6020830191508360208260051b8501011115612b84575f5ffd5b9250929050565b5f5f5f5f5f5f60808789031215612ba0575f5ffd5b86359550602087013567ffffffffffffffff811115612bbd575f5ffd5b8701601f81018913612bcd575f5ffd5b803567ffffffffffffffff811115612be3575f5ffd5b896020828401011115612bf4575f5ffd5b60209190910195509350604087013567ffffffffffffffff811115612c17575f5ffd5b612c2389828a01612b43565b9094509250612c36905060608801612b1d565b90509295509295509295565b73ffffffffffffffffffffffffffffffffffffffff81168114611482575f5ffd5b5f60208284031215612c73575f5ffd5b8135611f2a81612c42565b5f5f60408385031215612c8f575f5ffd5b823591506020830135612ca181612b10565b809150509250929050565b5f5f5f60608486031215612cbe575f5ffd5b8335612cc981612c42565b92506020840135612cd981612c42565b929592945050506040919091013590565b602081525f612cfc6020830184612a56565b9392505050565b5f82825180855260208501945060208160051b830101602085015f5b83811015612d6f577fffffffffffffffffffffffffffffffffffffffffffffffffffffffffffffffe0858403018852612d59838351612a56565b6020988901989093509190910190600101612d1f565b50909695505050505050565b602081525f612cfc6020830184612d03565b7f4e487b71000000000000000000000000000000000000000000000000000000005f52602160045260245ffd5b6020810160088310612df3577f4e487b71000000000000000000000000000000000000000000000000000000005f52602160045260245ffd5b91905290565b5f8151808452602084019350602083015f5b82811015612e3f57815173ffffffffffffffffffffffffffffffffffffffff16865260209586019590910190600101612e0b565b5093949350505050565b602081525f612cfc6020830184612df9565b5f8151808452602084019350602083015f5b82811015612e3f578151865260209586019590910190600101612e6d565b602081525f612cfc6020830184612e5b565b5f5f5f5f5f60a08688031215612eb1575f5ffd5b505083359560208501359550604085013594606081013594506080013592509050565b5f5f60408385031215612ee5575f5ffd5b823591506020830135612ca181612c42565b5f5f60408385031215612f08575f5ffd5b8235612f1381612c42565b946020939093013593505050565b7f4e487b71000000000000000000000000000000000000000000000000000000005f52604160045260245ffd5b604051601f82017fffffffffffffffffffffffffffffffffffffffffffffffffffffffffffffffe016810167ffffffffffffffff81118282101715612f9557612f95612f21565b604052919050565b5f5f67ffffffffffffffff841115612fb757612fb7612f21565b50601f83017fffffffffffffffffffffffffffffffffffffffffffffffffffffffffffffffe016602001612fea81612f4e565b915050828152838383011115612ffe575f5ffd5b828260208301375f602084830101529392505050565b5f82601f830112613023575f5ffd5b612cfc83833560208501612f9d565b5f67ffffffffffffffff82111561304b5761304b612f21565b5060051b60200190565b5f82601f830112613064575f5ffd5b813561307761307282613032565b612f4e565b8082825260208201915060208360051b860101925085831115613098575f5ffd5b602085015b838110156130be5780356130b081612c42565b83526020928301920161309d565b5095945050505050565b5f82601f8301126130d7575f5ffd5b81356130e561307282613032565b8082825260208201915060208360051b860101925085831115613106575f5ffd5b602085015b838110156130be57803583526020928301920161310b565b5f82601f830112613132575f5ffd5b813561314061307282613032565b8082825260208201915060208360051b860101925085831115613161575f5ffd5b602085015b838110156130be57803567ffffffffffffffff811115613184575f5ffd5b613193886020838a0101613014565b84525060209283019201613166565b5f82601f8301126131b1575f5ffd5b81356131bf61307282613032565b8082825260208201915060208360051b8601019250858311156131e0575f5ffd5b602085015b838110156130be57803567ffffffffffffffff811115613203575f5ffd5b8601603f81018813613213575f5ffd5b61322588602083013560408401612f9d565b845250602092830192016131e5565b5f5f5f5f5f60a08688031215613248575f5ffd5b853567ffffffffffffffff81111561325e575f5ffd5b61326a88828901613014565b955050602086013567ffffffffffffffff811115613286575f5ffd5b61329288828901613055565b945050604086013567ffffffffffffffff8111156132ae575f5ffd5b6132ba888289016130c8565b935050606086013567ffffffffffffffff8111156132d6575f5ffd5b6132e288828901613123565b925050608086013567ffffffffffffffff8111156132fe575f5ffd5b61330a888289016131a2565b9150509295509295909350565b600181811c9082168061332b57607f821691505b602082108103613362577f4e487b71000000000000000000000000000000000000000000000000000000005f52602260045260245ffd5b50919050565b86815260806020820152846080820152848660a08301375f60a086830101525f7fffffffffffffffffffffffffffffffffffffffffffffffffffffffffffffffe0601f870116820160a08382030160408401528460a08201527f07ffffffffffffffffffffffffffffffffffffffffffffffffffffffffffffff8511156133ed575f5ffd5b8460051b808760c084013793151560609390930192909252500160c00195945050505050565b5f60208284031215613423575f5ffd5b5051919050565b7f4e487b71000000000000000000000000000000000000000000000000000000005f52601160045260245ffd5b80820180821115611d7757611d7761342a565b5f60c082840312801561347b575f5ffd5b5060405160c0810167ffffffffffffffff8111828210171561349f5761349f612f21565b60409081528351825260208085015190830152838101519082015260608301516134c881612b10565b60608201526080838101519082015260a0928301519281019290925250919050565b5f816134f8576134f861342a565b507fffffffffffffffffffffffffffffffffffffffffffffffffffffffffffffffff0190565b601f82111561356257805f5260205f20601f840160051c810160208510156135435750805b601f840160051c820191505b81811015611cf8575f815560010161354f565b505050565b815167ffffffffffffffff81111561358157613581612f21565b6135958161358f8454613317565b8461351e565b6020601f8211600181146135e6575f83156135b05750848201515b7fffffffffffffffffffffffffffffffffffffffffffffffffffffffffffffffff600385901b1c1916600184901b178455611cf8565b5f848152602081207fffffffffffffffffffffffffffffffffffffffffffffffffffffffffffffffe08516915b828110156136335787850151825560209485019460019092019101613613565b508482101561366f57868401517fffffffffffffffffffffffffffffffffffffffffffffffffffffffffffffffff600387901b60f8161c191681555b50505050600190811b01905550565b5f7fffffffffffffffffffffffffffffffffffffffffffffffffffffffffffffffff82036136ae576136ae61342a565b5060010190565b60e081525f6136c760e083018a612a56565b82810360208401526136d9818a612df9565b905082810360408401526136ed8189612e5b565b905082810360608401526137018188612d03565b905082810360808401526137158187612d03565b60a0840195909552505060c0015295945050505050565b5f815461373881613317565b808552600182168015613752576001811461378c576137c0565b7fffffffffffffffffffffffffffffffffffffffffffffffffffffffffffffff0083166020870152602082151560051b87010193506137c0565b845f5260205f205f5b838110156137b75781546020828a010152600182019150602081019050613795565b87016020019450505b50505092915050565b828152604060208201525f611f2c604083018461372c565b5f8154808452602084019350825f5260205f205f5b82811015612e3f57815473ffffffffffffffffffffffffffffffffffffffff168652602090950194600191820191016137f6565b5f8154808452602084019350825f5260205f205f5b82811015612e3f57815486526020909501946001918201910161383f565b5f82825480855260208501945060208160051b830101845f5260205f205f5b83811015612d6f577fffffffffffffffffffffffffffffffffffffffffffffffffffffffffffffffe08584030188526138b5838361372c565b6020989098019792506001918201910161387c565b60a081525f6138dc60a08301886137e1565b82810360208401526138ee818861382a565b90508281036040840152613902818761385d565b60608401959095525050608001529392505050565b60c081525f61392960c08301896137e1565b828103602084015261393b818961382a565b9050828103604084015261394f818861385d565b60608401969096525050608081019290925260a090910152939250505056fea2646970667358221220f0b34148fe20fa265e4620cdd0e8a7ab645da1db8305918fabbac2aeeb49651d64736f6c634300081e0033",
        "linkReferences": {}
    },
    "methodIdentifiers": {
        "activeProposalCount()": "76e43099",
        "anonymousVoting()": "2daacd68",
        "anonymousVotingEnabled()": "8da7e72c",
        "cancel(uint256)": "40e58ee5",
        "castAnonymousVote(uint256,bytes,bytes32[],bool)": "10845007",
        "castVote(uint256,bool)": "15373e3d",
        "emergencyRecoverOnPool(address,address,uint256)": "1cb1f654",
        "execute(uint256)": "fe0d94c1",
        "flashLoanProtectionEnabled()": "6d61de41",
        "getAgainstVotes(uint256)": "144f0b32",
        "getCalldatas(uint256)": "74dd178b",
        "getCanceled(uint256)": "70d05030",
        "getCombinedVoteResults(uint256)": "1fb21cbb",
        "getDescription(uint256)": "4925ec55",
        "getEndBlock(uint256)": "8c8ab7ad",
        "getExecuted(uint256)": "21947507",
        "getForVotes(uint256)": "c863b48e",
        "getProposalState(uint256)": "9080936f",
        "getProposer(uint256)": "e14bd874",
        "getReceipt(uint256,address)": "e23a9a52",
        "getSignatures(uint256)": "f4eccb8f",
        "getStartBlock(uint256)": "01b2320e",
        "getTargets(uint256)": "9b826fe1",
        "getValues(uint256)": "b29e522c",
        "getVotingPowerAt(address,uint256)": "eaeded5f",
        "governanceToken()": "f96dae0a",
        "latestProposalIds(address)": "17977c61",
        "maxActiveProposals()": "e0450353",
        "proposalThreshold()": "b58131b0",
        "proposalTimelockIds(uint256)": "0fbb3dc8",
        "proposals(uint256)": "013cf08b",
        "propose(string,address[],uint256[],string[],bytes[])": "ecc097ff",
        "quorumVotes()": "24bc1a64",
        "setAnonymousVotingEnabled(bool)": "10381008",
        "setFlashLoanProtection(bool)": "13d2b6c6",
        "shadowPool()": "8864a153",
        "timelockController()": "f3388e75",
        "timelockDelay()": "eef09bad",
        "updateAnonymousVotingContract(address)": "11889ffc",
        "updateParameters(uint256,uint256,uint256,uint256,uint256)": "b7622dd4",
        "updateShadowPoolAddress(address)": "1e83a786",
        "updateTimelockController(address)": "77b74595",
        "votingPeriod()": "02a251a3",
        "votingPowerSnapshots(uint256,address)": "fa11e85c"
    },
    "id": 86
}